:020000041028C2
:1000000000000C2855052810590828105107281001
:100010005D082810610828106508281000000000FD
:10002000000000000000000000000000DD072810B4
:1000300069082810000000006D08281071082810B9
:10004000DB03281001042810270428104D04281071
:100050007304281099042810BF042810E504281000
:1000600075082810790828107D08281081082810A4
:1000700085082810890828108D0828109108281054
:1000800038B500F0FFF800F042F800F0C9F8714907
:100090000868800312D4BFF34F8FBFF36F8F002027
:1000A0006D4A1060BFF34F8FBFF36F8F086850F435
:1000B00000300860BFF34F8FBFF36F8F0868C00335
:1000C00024D40020654A1060BFF34F8F6448026853
:1000D000C2F34E33C2F3C90443F6E07010EA431092
:1000E00050EA84705F4D28602000441E0028F3D140
:1000F0001800431E0028EDD1BFF34F8F086850F45D
:1001000080300860BFF34F8FBFF36F8F31BD70B584
:1001100086B068465449182200F0C6F800200AE06C
:1001200069460200D2B201EBC2014968491C11F0D4
:10013000070F0DD1401C0100C9B2032909D269463D
:100140000200D2B211F8321011F0070FE8D0FEE72A
:10015000FEE7464C207810F0070F00D0FEE7444D34
:100160002868401C10F0070F00D0FEE7002622E0B0
:1001700068463100C9B200EBC10041683000C0B22E
:1001800052F8300000F043F814E000200028EFD0CF
:100190002168491E3000C0B252F8300000F037F834
:1001A00068463100C9B200EBC10041682868401CB4
:1001B00000F02DF8761C3000C0B2032825D26A4624
:1001C0003000C0B252F83000002813D0206831004F
:1001D000C9B252F8311088420AD368463100C9B218
:1001E00000EBC10040682168884201D30120CDE7BF
:1001F0000020CBE768463100C9B200EBC10040687F
:1002000021688842C1D30120C0E706B070BD00223A
:10021000002302E0C0E9002308308842FAD3704787
:1002200030B4144880081449144A002308E01C0024
:10023000E4B252F824401D00EDB241F825405B1CA9
:100240001C000500E4B2EDB2AC42F0D30C480160F2
:1002500030BC704714ED00E050EF00E084ED00E0AA
:1002600080ED00E060EF00E014082810FC05281085
:1002700000062810800000008007082800002810D1
:1002800008ED00E080B500F091F806490A6852F4E4
:1002900070020A60BFF34F8FBFF36F8F00F08AF8D0
:1002A00001BD000088ED00E0103A07D330B4B1E89A
:1002B0003810103AA0E83810F9D230BC530724BFE8
:1002C000B1E80810A0E8081044BF51F8043B40F81A
:1002D000043BD20724BF31F8022B20F8022B44BF85
:1002E0000B7803707047121F17D35B0009D151F8C8
:1002F000043B20F8023B1B0C121F20F8023BF6D2F5
:100300000BE051F8043B00F8013B1B0A20F8023BCC
:100310001B0C121F00F8013BF3D238BF121D521EF6
:1003200024BF11F8013B00F8013BF8D87047F0B446
:100330000246106895681318506803EB5004C00714
:1003400048BF4D44A3422DD013F8016B16F00300B3
:1003500004BF13F8010BC01C31090F2907D113F892
:10036000011B0F3103E013F8017B05F8017B401EF0
:10037000F9D10029E6D013F8010BC6F38106032E4C
:1003800008BF13F8016B00EB06204042284400260A
:10039000B71E8F421EBF10F8017B05F8017B761C4B
:1003A000F6D1CFE7F0BC02F10C007047EFF31080FC
:1003B00072B6704780F3108870470000010009B2E0
:1003C000002908D4012210F01F018A404F4900B2D1
:1003D000400941F820207047FEE780B54C4800688E
:1003E0004C4801680800C00F002805D04A4889051C
:1003F000890D50F8210080470020FFF7DFFF01BD85
:1004000080B546480068464801680800C00F0028CB
:1004100005D041488905890D50F821008047012009
:10042000FFF7CCFF01BD80B53E4800683E4801683B
:100430000800C00F002805D037488905890D50F8FD
:10044000210080470220FFF7B9FF01BD80B5374882
:100450000068374801680800C00F002805D02E4802
:100460008905890D50F8210080470320FFF7A6FF7A
:1004700001BD80B52F4800682F4801680800C00FF3
:10048000002805D024488905890D50F821008047AF
:100490000420FFF793FF01BD80B528480068284875
:1004A00001680800C00F002805D01B488905890D88
:1004B00050F8210080470520FFF780FF01BD80B57F
:1004C00020480068204801680800C00F002805D0B7
:1004D00011488905890D50F8210080470620FFF753
:1004E0006DFF01BD80B51948006819480168080012
:1004F000C00F002805D008488905890D50F8210053
:1005000080470720FFF75AFF01BD000080E200E0AE
:100510003808281000052040000008283C08281052
:1005200004052040400828100805204044082810F1
:100530000C05204048082810100520404C082810C1
:100540001405204050082810180520405408281091
:100550001C05204072B61D4908684FEA102000F0C3
:100560000F000E2808BF1A490D2808BF194907288F
:1005700008BF1949082808BF1849086820F00B006F
:1005800008600868BFF34F8F154816490860BFF32D
:100590004F8F1549086840F0070008601349086844
:1005A00040F007000860BFF34F8FBFF36F8F00204C
:1005B0000021124AE2E802016A45FBD10C4FB8471C
:1005C0000C4FB8470C4FB847FEE700000000204032
:1005D0000C0020400C0420400C0820400C0C204053
:1005E0000000281008ED00E090EF00E094EF00E03C
:1005F00081002810E5062810F907281000FF0B28B5
:10060000FFFF0B2880B5234A23490B6893423ED055
:100610000A60224A12684A62214A8A6202684A6073
:1006200042688A608268CA60C2680A6102694A6177
:1006300042698A618269CA61C2690A62F1EE102A5E
:1006400012F0900F23D0174A8A62026ACA62426A85
:100650000A63826A4A63C26A8A63026BCA63426B34
:100660000A64826B4A64C26B8A64026CCA64426C1C
:100670000A65826C4A65C26C8A65026DCA65426D04
:100680000A66826D4A66C26D8A66006EC86600F0B0
:100690000BF801BDFAF9F8F7EC06082828ED00E0A0
:1006A000A4A3A2A1ABAAA9A8FEE730B4002512E03A
:1006B00050F8042BD30744BF4A44521E091F042993
:1006C00042F8045BFAD213468C0744BF15809B1C8A
:1006D000C90748BF1D7050F8041B0029E8D130BC81
:1006E0007047000010B5074979441831064C7C4426
:1006F000163404E00A68081D114488470146A142E7
:10070000F8D110BD2C000000480000004EF68851C2
:10071000CEF20001086840F470000860BFF34F8F0C
:10072000BFF36F8F4FF00170E1EE100A70470000C9
:100730007BFFFFFF70000000EC06082800000000AF
:10074000EFFBFFFF5001000034000000000008280C
:1007500004207146084202D0EFF3098001E0EFF374
:10076000088000B50149884700BD00000506281033
:10077000801C800803D0401C801EFCD100BF704745
:10078000EFF3108072B6704780F310887047000056
:1007900000F00EF8002801D0FFF7A4FFAFF30080AF
:1007A0000020AFF3008000F005F800F004F800002E
:1007B00000207047FEE700F001B800000746384609
:1007C00000F002F8FBE7000080B5AFF30080024ABA
:1007D00011001820ABBEFBE7260002000420714682
:1007E000084201D0EFF30980EFF3088000B501491A
:1007F000884700BD2D0828100548014603B4684607
:1008000080F30988AFF30080FFF780FFFFF7C0FF98
:10081000A5EDF5FE00000828FFFF0B2800000020D2
:10082000FF3F002000000000FF3F0000816911F839
:10083000021CC9B201607047000000000000000007
:1008400000000000000000000000000000000000A8
:100850000000000000000000FFF7FEBFFFF778BFB8
:10086000FFF776BFFFF774BFFFF7FEBFFFF7FEBFCE
:10087000FFF7FEBFFFF7FEBFFFF7FEBFFFF7FEBFAC
:10088000FFF7FEBFFFF7FEBFFFF7FEBFFFF7FEBF9C
:10089000FFF7FEBFF002FFD903281004F1FF04F1B7
:1008A000FF04F1FF04F1FF04F1FF04F177040000FD
:1008B0000000000000000000000000000000000038
:1008C0000000000000000000000000000000000028
:1008D0000000000000000000000000000000000018
:1008E0000000000000000000000000000000000008
:1008F00000000000000000000000000000000000F8
:1009000000000000000000000000000000000000E7
:1009100000000000000000000000000000000000D7
:1009200000000000000000000000000000000000C7
:1009300000000000000000000000000000000000B7
:1009400000000000000000000000000000000000A7
:100950000000000000000000000000000000000097
:100960000000000000000000000000000000000087
:100970000000000000000000000000000000000077
:100980000000000000000000000000000000000067
:100990000000000000000000000000000000000057
:1009A0000000000000000000000000000000000047
:0E09B000000000000000000000000000000039
:04000005102807F9BF
:00000001FF
