:020000041008E2
:100000000000082839B5081091BD0810A9B90810DA
:1000100095BD081099BD08109DBD08100000000096
:10002000000000000000000000000000D1BA08102D
:10003000A1BD081000000000A5BD0810A9BD081052
:10004000BFB30810E5B308100BB4081031B40810A2
:1000500057B408107DB40810A3B40810C9B4081030
:10006000ADBD0810B1BD0810B5BD0810B9BD081070
:10007000BDBD0810C1BD0810C5BD0810C9BD081020
:10008000C82E002E802E3DB1C82E002E802E91034A
:10009000802EBCB0802EA303C82E002E802E00B070
:1000A0005030212E59F51030212E6AF5802E3B0359
:1000B0000000000008190100220075000010001067
:1000C000D100B343802E00C1802E00C1802E00C11C
:1000D000802E00C1802E00C1802E00C1802E00C164
:1000E000802E00C1802E00C1802E00C1802E00C154
:1000F000802E00C1802E00C1802E00C1802E00C144
:10010000802E00C1802E00C1802E00C1802E00C133
:10011000802E00C1802E00C1802E00C1802E00C123
:10012000802E00C1802E00C1802E00C1802E00C113
:10013000802E00C1802E00C1802E00C1802E00C103
:10014000802E00C1802E00C1802E00C1802E00C1F3
:10015000802E00C1802E00C1802E00C1802E00C1E3
:10016000802E00C1802E00C1802E00C1E05F000003
:1001700000000100000000000000000000009200EC
:10018000000000000000000000000000000000006F
:1001900008190000880000000000000005E0AA38EF
:1001A00005E09030FA0096004B09110011000200A2
:1001B0002D01D47B3B01DB7A04003F7BCD6CC30473
:1001C0008509C304ECE60C460100270019009600DF
:1001D000A00001000C00F03C000101000300010040
:1001E0000E00000032000500EE060400C80000000A
:1001F0000400A805EE060004BC02B3008507000059
:1002000000000000000000000000000000000000EE
:100210000000B4000100B9000100980000000000D7
:100220000000000001008000040000000000000049
:1002300000000000000000000000000000000000BE
:1002400000000000000000000000000000000000AE
:10025000000000000000000000000000000000009E
:10026000000000000000000000000000000000008E
:1002700000000000000000000000802E00C1FD2DE5
:10028000DE00EB00DA00000CFF0F0004C0005BF59D
:10029000C9011EF280003FFF19F458F566F564F5B8
:1002A000C0F1F000E000CD01D301DB01FF7FFF01D1
:1002B000E40074F7F300FA00FF3FCA036C3856FEFF
:1002C00044FDBC02F90600FC1202AE0158FA9AFD88
:1002D0007705BB02960195017F01820189018701A3
:1002E00088018A018C018F018D0192019101DD004D
:1002F0009F017E01DB00B601706926D39C071F05B4
:100300009D000008BC0537FAA201AA01A101A801BD
:10031000A001A805B401B401CE00D000FC00C501C5
:10032000FFFBB10000380030FDF5FCF5CD01A00069
:100330005FFF0040FF0000806D0FEB007FFFC2F504
:1003400068F7B3F1670F5B0F610F800F58F75BF72A
:10035000830F8600720F850FC6F17F0F6CF700E0E8
:1003600000FFD1F5870F8A0FFF03F03F8B008E004F
:100370009000B9002DF5CAF5CB0120F20000000075
:10038000000000000000000000000000000000006D
:10039000000000000000000000000000000000005D
:1003A000000000000000000000000000000000004D
:1003B000000000000000000000000000000000003D
:1003C000000000000000000000000000000000002D
:1003D000000000000000000000000000000000001D
:1003E000000000000000000000000000000000000D
:1003F00000000000000000000000000000000000FD
:1004000000000000000000000000000000000000EC
:1004100000000000000000000000000000000000DC
:1004200000000000000000000000000000000000CC
:1004300000000000000000000000000000000000BC
:1004400000000000000000000000000000000000AC
:1004500000000000000000003050982ED70E5032EF
:10046000982EFA030030F07F002E002ED02E002EA2
:10047000018008A2FB2F982EBA03212E1900012E0D
:10048000EE0000B2072F012E190000B2032F015019
:100490000352982E07CC012EDD0000B2272F052E27
:1004A0008A000552982EC7C1032EE90040B2F07FA2
:1004B000082F012E190000B2042F0030212EE90070
:1004C000982EB4B1012E180000B2102F0550982EAE
:1004D0004DC30550982E5AC7982EF9B4982E54B291
:1004E000982E67B6982E17B21030212E7700012E65
:1004F000EF0000B2042F982E7AB70030212EEF00C3
:10050000012ED40004AE0B2F012EDD0000B2072F08
:100510000552982E8E0E00B2022F1030212E7D0033
:10052000012E7D000090902EF102012ED70000B226
:10053000042F982E2F0E0030212E7B00012E7B00E1
:1005400000B2122F012ED4000090022F982E1F0E01
:10055000092D982E810D012ED4000490022F5032C7
:10056000982EFA030030212E7B00012E7C0000B271
:10057000902E0903012E7C000131010800B2042FE6
:10058000982E47CB1030212E77008130012E7C0031
:10059000010800B2612F032E8900012ED40098BCFF
:1005A00098B805B20F58232F079009540030372F01
:1005B00015410441DCBE44BEDCBA2C0161000F567B
:1005C0004A0F0C2FD14294B8C1421130052E6AF760
:1005D0002CBD2FB980B20822982EC3B7212D6130CF
:1005E000232ED400982EC3B70030212E5AF5182D93
:1005F000E17F5030982EFA030F520750504270306E
:100600000D5442427E82E26F80B24242052F212E7B
:10061000D4001030982EC3B7032D6030212ED400A3
:10062000012ED4000690182F012E76000B5407528D
:10063000E07F982E7AC1E16F081A4030082F212EF2
:10064000D4002030982EAFB75032982EFA03052DE3
:10065000982E380E0030212ED4000030212E7C0040
:10066000182D012ED40003AA012F982E450E012E1D
:10067000D4003F8003A2012F002E022D982E5B0E86
:100680003030982ECEB70030212E7D005032982E7B
:10069000FA03012E770000B2242F982EF5CB032EFB
:1006A000D5001154010ABC848386212EC901E04083
:1006B0001352C4408240A8B9524243BE5342040A76
:1006C0005042E17FF0314140F26F25BD0808020A37
:1006D000D07F982EA8CF06BCD16FE26F080A804267
:1006E000982E58B70030212EEE00212E7700212EB3
:1006F000DD00802EF4011A242200802EEC0110501F
:10070000FB7F982EF3035750FB6F01307154114259
:10071000420EFC2FC02E0142F05F802E00C1FD2D45
:100720000100000000000000000000009A013403F6
:1007300000000000000000000000000000000000B9
:1007400000000000000000000000000000000000A9
:100750000000000000000000000000000000000099
:100760000000000000000000000000000000000089
:100770000000000000000000000000000000000079
:100780000000000000000000000000000000000069
:100790000000000000000000000000000000000059
:1007A00000002050E77FF67F06320F2E61F5FE092C
:1007B000C0B3042F17302F2EEF002D2E61F5F66FEA
:1007C000E76FE05FC82E2050E77FF67F46300F2EA0
:1007D000A4F1BE0980B3062F0D2ED40084AF022FE2
:1007E00016302D2E7B0086302D2E60F5F66FE76FCC
:1007F000E05FC82E012E77F709BC0FB800B2105089
:10080000FB7F10300B2F032E8A0096BC9FB840B29E
:10081000052F032E68F79EBC9FB840B2072F032E0A
:100820007E004190012F982EDC03032C0030212EF6
:100830007E00FB6FF05FB82E2050E07FFB7F002E24
:100840002750982E3BC82950982EA7C80150982EA3
:1008500055CCE16F2B50982EE0C9FB6F0030E05F64
:10086000212E7E00B82E7350013057541142420E93
:10087000FC2FB82E212E59F51030C02E212E4AF112
:100880009050F77FE67FD57FC47FB37FA17F907FB5
:10089000827F7B7F982E35B700B2902E97B0032EC3
:1008A0008F00072E9100052EB1003FBA9FB8012E90
:1008B000B100A3BD4C0A052EB10004BEBFB9CB0ADE
:1008C0004FBA22BD012EB300DC0A2FB9032EB800A7
:1008D0000ABE9A0ACFB99BBC012E97009FB8930A13
:1008E0000FBC910A0FB8900A252E1800052EC1F5ED
:1008F0002EBD2EB9012E190031308A040090072F29
:10090000012ED40004A2032F012E180000B20C2FD8
:1009100019500552982E4DB7052E78008090103052
:10092000012F212E7800252EDD00982E3EB700B233
:1009300002300130042F012E190000B2002F2130A7
:10094000012EEA00081A0E2F232EEA0033301B5026
:100950000B090140175646BE4B084C0A01420A805B
:1009600015520142002E012E180000B21F2F032E37
:10097000C0F5F030480847AA7430072E7A0061228B
:100980004B1A052F072E66F5BFBDBFB9C0900B2FC0
:100990001D562B30D242DB420104C24204BDFE8010
:1009A0008184232E7A0002420232252E62F5052E22
:1009B000D6008184252ED6000231252E60F5052E25
:1009C0008A000B50900880B20B2F052ECAF5F03E1E
:1009D0009008252ECAF5052E59F5E03F9008252EE2
:1009E00059F5906FA16FB36FC46FD56FE66FF76F56
:1009F0007B6F826F705FC82EC050907FE57FD47F81
:100A0000C37FB17FA27F877FF67F7B7F002E012E81
:100A100060F5607F982E35B70230636F1552507FB6
:100A2000627F5A2C02321A0900B3142F00B2032F2E
:100A3000092E180000910C2F437F982E97B71F5056
:100A4000028A02320430252E64F51552506F436F2E
:100A50004443252E60F5D908C0B2362F982E3EB7F4
:100A600000B2062F012E190000B2022F506F009025
:100A70000A2F012E79000090192F1030212E7900B5
:100A80000030982EDC03132D012EC3F50CBC0FB8DB
:100A90001230100403B0262521500352982E4DB772
:100AA0001030212EEE000230607F252E7900606F1D
:100AB0000090052F0030212EEA001550212E64F5FC
:100AC0001552232E60F50232506F0090022F033032
:100AD000272E7800072E60F51A090091A32F190917
:100AE0000091A02F906FA26FB16FC36FD46FE56FAD
:100AF0007B6FF66F876F405FC82EC050E77FF67F31
:100B000026300F2E61F52F2E7C000F2E7C00BE09A3
:100B1000A27F807F80B3D57FC47FB37F917F7B7FAF
:100B20000B2F23501A251240427F74821240527FAD
:100B3000002E0040607F982E6AD68130012E7C0006
:100B4000010800B2422F032E8900012E890097BCB4
:100B500006BC9FB80FB80090232ED800103001308B
:100B60002A2F032ED40044B2052F47B200302D2F78
:100B7000212E7C002B2D032EFDF59EBC9FB84090AE
:100B8000142F032EFCF599BC9FB840900E2F032E16
:100B900049F125544A084090082F982E35B700B2E5
:100BA0001030032F5030212ED400102D982EAFB7C7
:100BB0000030212E7C000A2D052E69F72DBD2FB99E
:100BC00080B2012F212E7D00232E7C00E031212ECA
:100BD00061F5F66FE76F806FA26FB36FC46FD56F6B
:100BE0007B6F916F405FC82E60510A253688F47F75
:100BF000EB7F0032315232301330982E15CB0A255C
:100C00003384D27F433005502D52982E95C1D26F38
:100C10002752982ED7C72A25B086C07FD37FAF84AE
:100C20002950F16F982E4DC82A25AE8AAA88F26EF7
:100C30002B50C16FD36FF47F982EB6C8E06E00B210
:100C4000322F33548386F16FC37F04303030F47F0A
:100C5000D07FB27FE330C56F56404541280803146A
:100C60000EB408BC8240100A2F542605917F4428F8
:100C7000A37F982ED9C008B933305309C16FD36F01
:100C8000F46F831747406C15B26FBE09750B904225
:100C90004542510E32BC0289A16F7E86F47FD07F1F
:100CA000B27F0430916FD62FEB6FA05EB82E032E6B
:100CB00097001BBC60509FBC0CB8F07F40B2EB7F2C
:100CC0002B2F032E7F004140012EC800011A112F47
:100CD0003758232EC8001041A07F38810141D07FB2
:100CE000B17F982E64CFD06F0780A16F1142002E84
:100CF000B16F01421130012EFC0000A80330CB225D
:100D00004A25012E7F003C8935520554982EC4CEC9
:100D1000C16FF06F982E95CF042D0130F06F982E93
:100D200095CFEB6FA05FB82E032EB3000232F030E8
:100D3000033130508A080808CB08E07F80B2F37F87
:100D4000DB7F252F032ECA004190042F0130232E74
:100D5000CA00982E3F03C0B2052F032EDA000030E0
:100D60004104232EDA00982E92B21025F06F00B2C3
:100D7000052F012EDA0002301004212EDA0040B2D5
:100D8000012F232EC801DB6FE06FD05F802E95CF3F
:100D90000130E06F982E95CF1130232ECA00DB6F03
:100DA000D05FB82ED0500A2533845550D27FE27FD1
:100DB000038CC07FBB7F0030055A39545141A57F59
:100DC000967F807F982ED9C00530F57F2025916FC2
:100DD0003B583D5C3B56982E67CCC16FD56F524057
:100DE0005043C17FD57F1025982EFEC91025982E1F
:100DF00074C0866F3028926F828CA56F6F52690E17
:100E00003954DB2F19A01530032F0030212E81011A
:100E10000A2D012E810105284236212E8101020E64
:100E2000012F982EF303575012300140982EFEC91F
:100E3000516F0B5C8E0E3B6F57580230212E95017F
:100E4000456F2A8DD27FCB7F132F02303F50D27F48
:100E5000A80E0E2FC06F535402005154420E103092
:100E600059520230012F002E032D504242421230BF
:100E7000D27F80B2032F0030212E8001122D012E4F
:100E8000C9000280052E8001113091280040252ED6
:100E90008001100E052F012E7F010190012F982E49
:100EA000F303002EA0410190A67F902EE3B4012E03
:100EB000950100A8902EE3B45B549580824080B2E7
:100EC00002402D8C3F52967F902EC2B3290E762F72
:100ED000012EC900004081284552B330982E0FCA18
:100EE0005D54807F002EA140727F82808240607FAF
:100EF000982EFEC91025982E74C0626F0530874069
:100F0000C0910430052F052E830180B21430002FCC
:100F10000430052EC900736F8140E2406904110F4F
:100F2000E1401630FE29CB40022F836F830F222F22
:100F30004756130F1230772F4954420E1230732F39
:100F400000910A2F012E8B0119A802306C2F6350DB
:100F5000002E17420542682C12300B25080F503026
:100F6000022F212E8301032D4030212E83012B2EB1
:100F700085015A2C123000912B25042F635002302A
:100F80001742172C0242982EFEC91025982E74C0C5
:100F9000052EC90081845B308240372E8301020E0A
:100FA000072F5F52403062404140910E012F212EA9
:100FB000830105302B2E85011230362C1630152575
:100FC000817F982EFEC91025982E74C019A2163064
:100FD000152F052E9701806F820E052F012E860199
:100FE0000628212E86010B2D032E87015F544E28E3
:100FF0009142002E8240900E012F212E8801023056
:10100000132C0530C06F081CA80F163005305B503C
:10101000092F02802D2E820105420580002E0242FA
:101020003E80002E06420230906F3E88014004410F
:101030004C280142078010252440004000A8F522DA
:10104000232944427A827E884340044100ABF52341
:10105000DF284342D9A0142F0090022FD26F81B213
:10106000052F6354062890428542092C02305B50BC
:101070000380292E7E012B2E8201054212302B2E59
:1010800083014582002E40407A8202A0082F6350DF
:101090003B30154205423780372E7E010542123023
:1010A000012EC900028C404084417A8C040F032F2A
:1010B000012E8B0119A4042F2B2E8201982EF303ED
:1010C000123081906152082F654265424380398415
:1010D00082880542454285420543002E80410090AA
:1010E000902EE1B46554C16F804000B243586950FE
:1010F000442F555CB7878C0F0D2E9601C440362FB8
:1011000041568B0E2A2F0B52A10E0A2F052E8F014E
:101110001425982EFEC94B54020F695005306554B2
:10112000152F032E8E014D5C8E0F3A2F052E8F0149
:10113000982EFEC94F54820F053069506554302FE8
:101140006D521530428C454204302B2C84436B5237
:10115000428C002E85431530242C45428E0F202FC3
:101160000D2E8E01B10E1C2F232E8E011A2D0E0E68
:10117000172FA10F152F232E8D01132D982E74C01C
:101180004354C20E0A2F655004800B3006820B4276
:10119000798041401230252E8C0101420530695082
:1011A000655484824384BE8C8440864126299442BF
:1011B000BE8ED57F19A143400B2E8C018440C741C0
:1011C0005D29272945428442C27F012FC0B31D2FCC
:1011D000052E940199A0012F80B3132F80B3182FEF
:1011E000C0B3162F12400140927F982E74C0926FA8
:1011F000100F2030032F1030212E7E010A2D212EBA
:101200007E01072D2030212E7E01032D1030212E4E
:101210007E01C26F012EC900BC8402808240004062
:10122000900ED56F022F1530982EF30341910530A3
:10123000072F67503D802B2E8F0105420480002E22
:101240000542022C00300030A26F988A864080A7A9
:10125000052F982EF303C030212E950106251A255F
:10126000E26F768296405643510EFB2FBB6F305F84
:10127000B82E012EB8000131410840B22050F230A2
:101280000208FB7F0130102F052ECC008190E07FFB
:10129000032F232ECC00982E55B6982E1DB5102561
:1012A000FB6FE06FE05F802E95CF982E95CF1030CA
:1012B000212ECC00FB6FE05FB82E00510558EB7F6C
:1012C0002A2589526F5A895013410640B3011642AC
:1012D000CB160640F3021342650EF52F054014307D
:1012E0002C29044208A10030902E52B6B388B08A4F
:1012F000B684A47FC47FB57FD57F927F73300430DE
:10130000554042408A17F3086B01900253B84B8254
:10131000ADBE717F450A0954847F982ED9C0A36F52
:101320007B54D042A37FF27F607F2025716F755A76
:101330007758795C7556982E67CCB16F626F5042C2
:10134000B17FB3301025982E0FCA846F2029716F9A
:10135000926FA56F76826A0E73300030D02FD26FF5
:10136000D17FB47F982E2BB715BD0BB8020AC26F80
:10137000C07F982E2BB715BD0BB8420AC06F081757
:1013800041188916E118D018A17F27251625982E17
:1013900079C08B54907FB330824080900D2F7D5266
:1013A000926F982E0FCAB26F900E062F8B5014308A
:1013B000426F516F144212420142002E316F982E3B
:1013C00074C0416F807F982E74C0826F10044352A6
:1013D000010F052ECB0000300430212F516F4358F0
:1013E0008C0E04301C2F8588416F04418C0F043013
:1013F000162F8488002E044104058C0E04300F2F14
:101400008288316F044104058C0E0430082F8388D4
:10141000002E04418C0F0430022F212EAD01143018
:101420000091142F032EA10141900E2F032EAD0128
:1014300014304C28232EAD0146A0062F81848D52F6
:1014400048828240212EA10142425C2C0230052EAE
:10145000AA0180B20230552F032EA901926FB3303A
:10146000982E0FCAB26F900F003002304A2FA26F31
:10147000875291008552510E022F002E432C0230CC
:10148000C26F7F52910E02303C2F516F8154982EC3
:10149000FEC91025B3302125982E0FCA326FC07FA8
:1014A000B3301225982E0FCA426FB07FB330122589
:1014B000982E0FCAB26F90288352982EFEC9C26F21
:1014C000900F003002301D2F052EA10180B2123086
:1014D0000F2F426F032EAB01910E0230122F526F6D
:1014E000032EAC01910F02300C2F212EAA010A2CE1
:1014F0001230032ECB008D58088941401143004320
:10150000252EA101D46F8F5200433A89002E10433B
:101510001043610EFB2F032EA001111A022F02258A
:10152000212EA001EB6F005FB82E915210300230D7
:10153000955652424B0EFC2F8D5488829356804212
:101540005342404242868354C02EC242002EA352D0
:101550000051524047401A25012E97008FBE7286D7
:10156000FB7F0B307CBFA5501008DFBA7088F8BF36
:10157000CB42D37F6CBBFCBBC50A907F1B7F0B4368
:10158000C0B2E57FB77FA67FC47F902E1CB7072E21
:10159000D200C0B20B2F9752012ECD00827F982E21
:1015A000BBCC0B30372ED200826F906F1A2500B261
:1015B0008B7F142FA6BD25BDB6B92FB980B2D4B08C
:1015C0000C2F99549B560B300B2EB100A1589B4207
:1015D000DB426C092B2EB1008B42CB42867F738499
:1015E000A756C30839520550727F637F982EC2C038
:1015F000E16F626FD10A012ECD00D56FC46F726F9B
:1016000097529D5C982E06CD236F906F9952C0B271
:1016100004BD5440AFB94540E17F0230062FC0B24F
:101620000230032F9B5C12309443854303BF6FBB92
:1016300080B3202F066F2601166F6E034542C090BF
:10164000292ECE009B52142F9B5C002E9341864185
:10165000E304AE0780AB042F80910A2F866F730FCF
:10166000072F836FC0B2042F544245421230042C1E
:101670001130022C1130113002BC0FB8D27F00B2F1
:101680000A2F012EFC00052EC701101A022F212E51
:10169000C701032D022C01300130B06F982E95CF79
:1016A000D16FA06F982E95CFE26F9F52012ECE0082
:1016B000824050420C2C42421130232ED200013085
:1016C000B06F982E95CFA06F0130982E95CF002E39
:1016D000FB6F005FB82E83860130003094402418E1
:1016E0000600530E4F02F92FB82EA952002E60406B
:1016F00041400DBC98BCC02E010A0FB8AB52533C00
:10170000524040404B00821626B901B841401008B3
:1017100097B80108C02E11300108438625400440C7
:10172000D8BE2C0B2211544203804B0EF62FB82E3C
:101730009F501050AD52052ED300FB7F002E13405A
:101740009342410EFB2F982EA5B7982E87CF012EDE
:10175000D90000B2FB6F0B2F012E69F7B13F0108D2
:101760000130F05F232ED900212E69F7802E7AB741
:10177000F05FB82E012EC0F8032EFCF51554AF56BD
:1017800082080B2E69F7CB0AB1588090DDBE4C0859
:101790005FB959228090072F0334C308F23A0A0830
:1017A0000235C0904A0A4822C02E232EFCF5105064
:1017B000FB7F982E56C7982E49C31030FB6FF05F01
:1017C000212ECC00212ECA00B82E032ED30016B82D
:1017D00002344A0C212E2DF5C02E232ED30003BC3B
:1017E000212ED500032ED50040B21030212E7700D7
:1017F0000130052F052ED8008090012F232E6FF584
:10180000C02E212ED90011308108012E6AF7713FB8
:1018100023BD0108020AC02E212E6AF730250030B0
:10182000212E5AF51050212E7B00212E7C00FB7FAB
:10183000982EC3B74030212ED400FB6FF05F0325F4
:10184000802EAFB7802E00C1802E00C1802E00C137
:10185000802E00C1802E00C1802E00C1802E00C1CC
:10186000802E00C1802E00C1802E00C1802E00C1BC
:10187000802E00C1802E00C1802E00C1802E00C1AC
:10188000012E5DF708BC80AC0EBB022F0030410476
:101890008206C0A40030112F40A9032F40910D2FC4
:1018A00000A70B2F80B3B358022F90A1261320233B
:1018B00080901030012FCC0E002F0030B82EB55084
:1018C000180808BC88B60D17C6BD56BCB758DABA9A
:1018D00004011D0A1050053032254503FB7FF63008
:1018E0002125982E37CA16B59ABC06B880A8410A99
:1018F0000E2F8090022F2D50480F092FBFA0042FCC
:10190000BF90062FB754CA0F032F002E022CB752D8
:101910002D52F233982ED9C0FB6FF137C02E01083B
:10192000F05FBF56B954D040C4400B2EFDF3BF52F8
:101930009042944295420530C1500F8806400441C0
:101940009642C54248BE73300D2ED8004FBA84422D
:10195000034281B3022F2B2E6FF5062D052E77F74C
:10196000BD569308252E77F7BB54252EC2F5072EBA
:10197000FDF34230B433DA0A4C00272EFDF3434026
:10198000D43FDC084342002E002E43402430DC0AC2
:1019900043420480032EFDF34A0A232EFDF36134F3
:1019A000C02E0142002E60501A257A86E07FF37F18
:1019B0000325C3524184DB7F3330982E16C21A258B
:1019C0007D82F06FE26F32251640944026018540FB
:1019D0008E17C4426E039542410EF42FDB6FA05F59
:1019E000B82EB051FB7F982EE80D5A25982E0F0E79
:1019F000CB583287C47F65896B8DC55A657FE17F7F
:101A0000837FA67F747FD07FB67F947F1730C752C5
:101A1000C954517F002E856F427F002E5141458170
:101A2000424113403B8A00404B04D006C0AC857F46
:101A3000022F02305104D306418405305D02C916DD
:101A4000DF08D3008D02AFBCB1B9590A656F1143ED
:101A5000A1B4524153410143347F657F2631E56F84
:101A6000D46F982E37CA326F756F83404241237FFF
:101A7000127FF63040255125982E37CA146F200565
:101A8000706F256F6907A26F316F0B3004429B4264
:101A90008B425542327F40A9C36F717F0230D040E4
:101AA000C37F032F4091152F00A7132F00A4112FE0
:101AB00084BD982E79CA556FB75454418200F33FC4
:101AC0004541CB02F630982E37CA356FA46F41439B
:101AD000032C0043A46F356F1730426F516F934052
:101AE00042820041C3000343517F002E9440414194
:101AF0004C02C46FD156630E746F5143A57F8A2F79
:101B0000092ED80001B3212FCB58906F1341B66F27
:101B1000E47F002E9141144092411540172E6FF53D
:101B2000B67FD07FCB7F982E000C0715C26F140BA9
:101B3000292E6FF5C3A3C18FE46FD06FE62F143049
:101B4000052E6FF5140B292E6FF5182DCD56043286
:101B5000B56F1C0151415241C340B57FE47F982EBF
:101B60001F0CE46F218700430432CF545A0EEF2F2D
:101B70001554092E77F7220B292E77F7FB6F505E4D
:101B8000B82E1050012ED40000B2FB7F512F01B2AD
:101B9000482F02B2422F0390562FD75279804240ED
:101BA000818400404242982E930CD954D750A140D2
:101BB00098BD82403E82DA0A44408B16E3005342CD
:101BC000002E43409A025242002E414015544A0EC4
:101BD0003A2F3A8200304140212E850F40B20A2F21
:101BE000982EB10C982E450E982E5B0EFB6FF05F71
:101BF0000030802ECEB7DD52D35442424F84733032
:101C0000DB5283421B306B422330272ED700372E06
:101C1000D400212ED6007A84172C42423030212E57
:101C2000D400122D21300030232ED400212E7BF73A
:101C30000B2D1730982E510CD5500C8272302F2E50
:101C4000D400252E7BF74042002EFB6FF05FB82EAC
:101C500070500A253986FB7FE1326230982EC2C46B
:101C6000B556A56FAB08916F4B08DF56C46F2309BB
:101C70004DBA93BC8C0BD16F0B09CB52E15E56422F
:101C8000AF094DBA23BD940AE56F68BBEB08BDB937
:101C900063BEFB6F5242E30AC02E4342905FD150B5
:101CA000032E25F3134000409BBC9BB408BDB8B97C
:101CB00098BCDA0A08B68916C02E190062021050C4
:101CC000FB7F982E810D012ED40031300804FB6F6C
:101CD0000130F05F232ED600212ED700B82E012E22
:101CE000D700032ED600480E012F802E1F0EB82ECF
:101CF000E350213401428230C132252E62F50100C9
:101D0000223001404A0A0142B82EE354F03B83409E
:101D1000D808E5528342003083305042C432272E27
:101D200064F5940050424042D33F84407D82E308F2
:101D300040428342B82EDD52003040427C86B95288
:101D4000092E700FBF54C442D3865440554094426C
:101D50008542212ED7004240252EFDF3C0427E82CF
:101D6000052E7D0080B2142F052E890027BD2FB9C6
:101D70008090022F212E6FF50C2D072E710F14303D
:101D80001C09052E77F7BD5647BE9308940A252EE9
:101D900077F7E75450424A0EFC2FB82E50500230CD
:101DA0004386E550FB7FE37FD27FC07FB17F002E6B
:101DB000414000404804982E74C01EAAD36F1430CE
:101DC000B16FE322C06F5240E46F4C0E1242D37FDA
:101DD000EB2F032E860F40901130032F232E860FFA
:101DE000022C0030D06FFB6FB05FB82E4050F17FF7
:101DF0000A253C86EB7F41332230982EC2C4D36F34
:101E0000F430DC094758C26F9409EB586ABBDC0810
:101E1000B4B9B1BDE95A950821BDF6BF770B51BEE3
:101E2000F16FEB6F52425442C02E4342C05F50509C
:101E3000F55031301142FB7F7B300B421130028074
:101E4000233301420300072E8003052ED3002352C3
:101E5000E27FD37FC07F982EB60ED16F080A1A2575
:101E60007B86D07F01331230982EC2C4D16F080A0E
:101E700000B20D2FE36F012E80035130C786232E51
:101E800021F208BCC042982EA5B7002E002ED02EFD
:101E9000B06F0BB8032E1B00081AB07F7030042FF0
:101EA000212E21F2002E002ED02E982E6DC0982EBD
:101EB0005DC0ED50982E44CBEF50982E46C3F150A4
:101EC000982E53C73550982E64CF1030982EDC03CF
:101ED0002026C06F02311242AB330B4237800130F3
:101EE0000142F337F752FB504440A20A42428B3181
:101EF000092E5EF7F954E30883421B4223334B005B
:101F0000BC840B40333083420B42E07FD17F982E5C
:101F100058B7D16F803040420330E06FF354043043
:101F2000002E002E0189620EFA2F43421130FB6F02
:101F3000C02E0142B05FC14A00006D570000778E8D
:101F40000000E0FFFFFFD3FFFFFFE5FFFFFFEEE133
:101F5000FFFF7C13000046E6FFFF000000000000CA
:101F60000000000000000000000000000000000071
:101F70000000000000000000000000000000000061
:101F80000000000000000000000000000000000051
:101F900000000000802E00C1802E00C1802E00C1F4
:101FA000802E00C1802E00C1802E00C1802E00C175
:101FB000802E00C1802E00C1802E00C1802E00C165
:101FC000802E00C1802E00C1802E00C1802E00C155
:101FD000802E00C1802E00C1802E00C1802E00C145
:101FE000802E00C1802E00C1802E00C1802E00C135
:101FF000802E00C1802E00C1802E00C1802E00C125
:10200000802E00C1802E00C1802E00C1802E00C114
:10201000802E00C1802E00C1802E00C1802E00C104
:10202000802E00C1802E00C1802E00C1802E00C1F4
:10203000802E00C1802E00C1802E00C1802E00C1E4
:10204000802E00C1802E00C1802E00C1802E00C1D4
:10205000802E00C1802E00C1802E00C1802E00C1C4
:10206000802E00C1802E00C1802E00C1802E00C1B4
:10207000802E00C1802E00C1802E00C1802E00C1A4
:10208000022801D3012010E00B00DBB2042B01DB9E
:1020900001200AE0DFF8283803EB8000C9B2405C79
:1020A000824201D3012000E000207047F8B506000D
:1020B0000F0015001C00022E01D301201DE02A0094
:1020C0003900C9B23000FFF7DBFF012801D1012040
:1020D00013E03800C0B2002812D1B4F5807F0DD2D1
:1020E000DFF8E0077603304400EB850010F5805000
:1020F000016864F30F2101600020F2BD0120FCE7BC
:10210000FFB2012F11D1B4F5803F0CD2DFF8B40734
:102110007603304400EB850010F5A050016864F3AD
:1021200017210160E8E70120E7E70120E5E700B2B9
:102130000012C0B27047F8B505000E001700280065
:1021400000B2FFF7F4FF04002000C0B2022801D360
:10215000012024E03A003100C9B22000C0B2FFF7EC
:102160008FFF012801D1012019E0DFF85817200066
:10217000C0B2400308442A00D2B200EB8200D0F87B
:10218000000CF6B266F3092067F30700E4B26403BB
:102190002144EDB201EB8501C1F8000C0020F2BD35
:1021A00070B504000D001600022C01D301201DE0C3
:1021B00032002900C9B22000FFF762FF012801D1D7
:1021C000012013E0DFF8FC166003085850F00040CF
:1021D00050F0407050F47F00EDB265F3092066F3D3
:1021E00007006203885064030859002070BD10B5D1
:1021F000C0B2002800F0EA80022800F0EB80C0F0B6
:10220000E780042800F0EA80C0F0E680062800F0AD
:10221000E980C0F0E580082800F0E880C0F0E480A4
:102220000A2800F0E780C0F0E3800C2800F0E68088
:10223000C0F0E2800E2800F0E580C0F0E1801028B8
:1022400000F0E480C0F0E080122800F0E380C0F0ED
:10225000DF80142800F0E280C0F0DE80162800F055
:10226000E180C0F0DD80182800F0E080C0F0DC8064
:102270001A2800F0DF80C0F0DB801C2800F0DE8030
:10228000C0F0DA801E2800F0DD80C0F0D980202860
:1022900000F0DC80C0F0D880222800F0DB80C0F0A5
:1022A000D780242800F0DA80C0F0D680262800F0FD
:1022B000D980C0F0D580282800F0D880C0F0D48024
:1022C0002A2800F0D780C0F0D3802C2800F0D680D8
:1022D000C0F0D2802E2800F0D580C0F0D180302808
:1022E00000F0D480C0F0D080322800F0D380C0F05D
:1022F000CF80342800F0D280C0F0CE80362800F0A5
:10230000D180C0F0CD80382800F0D080C0F0CC80E3
:102310003A2800F0CF80C0F0CB803C2800F0CE807F
:10232000C0F0CA803E2800F0CD80C0F0C9804028AF
:1023300000F0CC80C0F0C880422800F0CB80C0F014
:10234000C780442800F0CA80C0F0C680462800F04C
:10235000C980C0F0C580482800F0C880C0F0C480A3
:102360004A2800F0C780C0F0C3804C2800F0C68027
:10237000C0F0C2804E2800F0C580C0F0C180502857
:1023800000F0C480C0F0C080522800F0C380C0F0CC
:10239000BF80542800F0C280C0F0BE80562800F0F4
:1023A000C180C0F0BD80582800F0C080C0F0BC8063
:1023B0005A2800F0BF80C0F0BB805C2800F0BE80CF
:1023C000C0F0BA805D2800F0BB80BBE01924BFE0FC
:1023D0003124BDE01824BBE03324B9E03524B7E054
:1023E0001424B5E03724B3E01324B1E02024AFE097
:1023F0001224ADE02124ABE01124A9E01024A7E0D1
:102400002824A5E02924A3E02A24A1E009249FE0B0
:102410002B249DE008249BE02C2499E0032497E0E2
:10242000022495E0392493E03B2491E03D248FE0A1
:1024300001248DE03F248BE0002489E0402487E0E4
:10244000412485E0422483E0432481E0BF247FE0EF
:1024500048247DE049247BE0BC2479E0992477E09E
:102460009A2475E0502473E09B2471E0B6246FE059
:1024700051246DE09C246BE0B52469E0522467E0B0
:10248000A02465E0B42463E0532461E0B3245FE05A
:1024900054245DE0B2245BE0B12459E0AD2457E060
:1024A000602455E0AE2453E0612451E0AD244FE0B8
:1024B00062244DE063244BE0AB2449E0642447E010
:1024C000AA2445E0652443E0A92441E0A8243FE094
:1024D00069243DE06B243BE06D2439E06F2437E054
:1024E000A32435E0702433E0A22431E071242FE0EE
:1024F000A1242DE097242BE0962429E0742427E0E2
:10250000952425E0752423E0942421E093241FE002
:1025100092241DE078241BE0792419E08C2417E034
:102520007A2415E08B2413E07B2411E08A240FE049
:102530005A240DE059240BE0892409E0582407E0CF
:10254000882405E09C22DFF84019002000F03CFEC2
:102550002000C0B210BD10B5C0B2002800F0EA8063
:10256000022800F0EB80C0F0E780042800F0EA8049
:10257000C0F0E680062800F0E980C0F0E580082879
:1025800000F0E880C0F0E4800A2800F0E780C0F0A6
:10259000E3800C2800F0E680C0F0E2800E2800F016
:1025A000E580C0F0E180102800F0E480C0F0E08019
:1025B000122800F0E380C0F0DF80142800F0E280F1
:1025C000C0F0DE80162800F0E180C0F0DD80182821
:1025D00000F0E080C0F0DC801A2800F0DF80C0F05E
:1025E000DB801C2800F0DE80C0F0DA801E2800F0BE
:1025F000DD80C0F0D980202800F0DC80C0F0D880D9
:10260000222800F0DB80C0F0D780242800F0DA8098
:10261000C0F0D680262800F0D980C0F0D5802828C8
:1026200000F0D880C0F0D4802A2800F0D780C0F015
:10263000D3802C2800F0D680C0F0D2802E2800F065
:10264000D580C0F0D180302800F0D480C0F0D08098
:10265000322800F0D380C0F0CF80342800F0D28040
:10266000C0F0CE80362800F0D180C0F0CD80382870
:1026700000F0D080C0F0CC803A2800F0CF80C0F0CD
:10268000CB803C2800F0CE80C0F0CA803E2800F00D
:10269000CD80C0F0C980402800F0CC80C0F0C88058
:1026A000422800F0CB80C0F0C780442800F0CA80E8
:1026B000C0F0C680462800F0C980C0F0C580482818
:1026C00000F0C880C0F0C4804A2800F0C780C0F085
:1026D000C3804C2800F0C680C0F0C2804E2800F0B5
:1026E000C580C0F0C180502800F0C480C0F0C08018
:1026F000522800F0C380C0F0BF80542800F0C28090
:10270000C0F0BE80562800F0C180C0F0BD805828BF
:1027100000F0C080C0F0BC805A2800F0BF80C0F03C
:10272000BB805C2800F0BE80C0F0BA805D2800F05D
:10273000BB80BBE00824C0E00824BEE00824BCE065
:102740000824BAE00824B8E00824B6E00824B4E07D
:102750000824B2E00824B0E00824AEE00824ACE08D
:102760000824AAE00824A8E00824A6E00824A4E09D
:102770000824A2E00824A0E008249EE008249CE0AD
:1027800008249AE0082498E0082496E0082494E0BD
:10279000082492E0082490E008248EE008248CE0CD
:1027A00008248AE0082488E0082486E0082484E0DD
:1027B000082482E0082480E008247EE008247CE0ED
:1027C00008247AE0082478E0082476E0082474E0FD
:1027D000082472E0082470E008246EE008246CE00D
:1027E00008246AE0082468E0082466E0082464E01D
:1027F000082462E0082460E008245EE008245CE02D
:1028000008245AE0162458E0082456E0082454E02E
:10281000082452E0082450E008244EE008244CE04C
:1028200008244AE0082448E0082446E0082444E05C
:10283000082442E0082440E008243EE008243CE06C
:1028400008243AE0082438E0082436E0082434E07C
:10285000082432E0082430E008242EE008242CE08C
:1028600008242AE0082428E0082426E0082424E09C
:10287000082422E0082420E008241EE008241CE0AC
:1028800008241AE0082418E0082416E0082414E0BC
:10289000082412E0082410E008240EE008240CE0CC
:1028A00008240AE0082408E0082406E040F20B129D
:1028B000DFF8D415002000F087FC2000C0B210BD66
:1028C000F8BC08100000044080B5C0B2002800F039
:1028D000EA80022800F0EB80C0F0E780042800F0D6
:1028E000EA80C0F0E680062800F0E980C0F0E580CC
:1028F000082800F0E880C0F0E4800A2800F0E780B3
:10290000C0F0E3800C2800F0E680C0F0E2800E28E2
:1029100000F0E580C0F0E180102800F0E480C0F015
:10292000E080122800F0E380C0F0DF80142800F07F
:10293000E280C0F0DE80162800F0E180C0F0DD808B
:10294000182800F0E080C0F0DC801A2800F0DF805A
:10295000C0F0DB801C2800F0DE80C0F0DA801E288A
:1029600000F0DD80C0F0D980202800F0DC80C0F0CD
:10297000D880222800F0DB80C0F0D780242800F027
:10298000DA80C0F0D680262800F0D980C0F0D5804B
:10299000282800F0D880C0F0D4802A2800F0D78002
:1029A000C0F0D3802C2800F0D680C0F0D2802E2832
:1029B00000F0D580C0F0D180302800F0D480C0F085
:1029C000D080322800F0D380C0F0CF80342800F0CF
:1029D000D280C0F0CE80362800F0D180C0F0CD800B
:1029E000382800F0D080C0F0CC803A2800F0CF80AA
:1029F000C0F0CB803C2800F0CE80C0F0CA803E28DA
:102A000000F0CD80C0F0C980402800F0CC80C0F03C
:102A1000C880422800F0CB80C0F0C780442800F076
:102A2000CA80C0F0C680462800F0C980C0F0C580CA
:102A3000482800F0C880C0F0C4804A2800F0C78051
:102A4000C0F0C3804C2800F0C680C0F0C2804E2881
:102A500000F0C580C0F0C180502800F0C480C0F0F4
:102A6000C080522800F0C380C0F0BF80542800F01E
:102A7000C280C0F0BE80562800F0C180C0F0BD808A
:102A8000582800F0C080C0F0BC805A2800F0BF80F9
:102A9000C0F0BB805C2800F0BE80C0F0BA805D282A
:102AA00000F0BB80BBE00020C0E00020BEE00120C1
:102AB000BCE00120BAE00220B8E00320B6E0032029
:102AC000B4E00420B2E00420B0E00520AEE0052030
:102AD000ACE00620AAE00720A8E00920A6E00A2032
:102AE000A4E00B20A2E00B20A0E00C209EE00C2034
:102AF0009CE00D209AE00D2098E00E2096E00F203B
:102B000094E0102092E0112090E011208EE012203D
:102B10008CE012208AE0132088E0142086E0152043
:102B200084E0162082E0162080E018207EE0192044
:102B30007CE019207AE01A2078E01B2076E01C2047
:102B400074E01C2072E01C2070E01D206EE01D204F
:102B50006CE01D206AE01E2068E01E2066E01E205A
:102B600064E01F2062E01F2060E020205EE0202063
:102B70005CE021205AE0222058E0242056E0242066
:102B800054E0252052E0252050E026204EE027206A
:102B90004CE027204AE0282048E0282046E0292071
:102BA00044E0292042E02A2040E02C203EE02D2075
:102BB0003CE02E203AE02F2038E02F2036E0302075
:102BC00034E0302032E0312030E031202EE032207D
:102BD0002CE033202AE0342028E0342026E0352081
:102BE00024E0352022E0362020E037201EE0382087
:102BF0001CE039201AE0392018E03A2016E03A208B
:102C000014E03B2012E03B2010E03B200EE03C2093
:102C10000CE03C200AE03D2008E03D2006E04FF4B7
:102C2000BD729949002000F0CFFA0020C0B202BD69
:102C3000002007E09549C2018A5822F00042C301F2
:102C4000CA50401C3F28F5DB704770B504000E00E9
:102C5000002000202000C0B2FFF736FE8B4DC0B22E
:102C6000C0012844006A80B206FB00F642F21070F0
:102C7000B6FBF0F62000C0B2FFF726FEC0012844E4
:102C8000B6B246612000C0B2FFF71EFE0100C9B215
:102C9000C9012944096C51F00101C0B2C0012844A6
:102CA000016470BD2DE9F041AAB004000D001600CA
:102CB000342100221DAF380000F018FB00207421E1
:102CC00000226F46380000F011FB0E201E902000FD
:102CD000C0B2FFF740FC8DF87C002000C0B2FFF7C7
:102CE00086FA07005FF008082000C0B2FFF77FFAFD
:102CF0001DAA97FBF8F108FB11773900644BC0B2AD
:102D0000C010C001184400F0EEFB2000C0B2FFF775
:102D1000DBFD00220121C0B210F5937000B2FFF775
:102D20000AFA2000C0B2FFF7CFFDC0B210F59370D1
:102D300000B2FFF7FCF9092300220121C0B2FFF71E
:102D4000B5F92000C0B2FFF7BFFDC0B210F5937017
:102D500000B2FFF7ECF900220121C0B2FFF720FA20
:102D60004C48B0FBF5F1090C4A482A04B0FBF2F3D9
:102D700002FB1300002800D0491C022903D20020C6
:102D80008DF801002FE0032903D201208DF8010006
:102D900029E0052903D202208DF8010023E009294A
:102DA00003D203208DF801001DE0112903D2042075
:102DB0008DF8010017E0212903D205208DF80100CC
:102DC00011E0412903D206208DF801000BE0812992
:102DD00003D207208DF8010005E04FF4E4722A4980
:102DE000002000F0F1F904208DF8000001208DF89A
:102DF000100000208DF8110003208DF81200032030
:102E00008DF8130000208DF80800224901229DF959
:102E100001008240B1FBF2F0B0FBF5F0401E0590DE
:102E20000598401C06FB00F642F21070B6FBF0F06D
:102E3000089002208DF8400003208DF868000120E2
:102E40001B9001208DF828002000C0B2FFF73CFD48
:102E50000E4D6946C0B2C001284400F083FB20003B
:102E6000C0B2FFF731FDC0B2C001284400F07AFCC7
:102E70002000C0B2FFF728FDC0B2C001284400F016
:102E800076FC2AB0BDE8F0815CB80810000058401C
:102E90000000314000127A0082B000200190002032
:102EA00000900020019009E00098401C00900098DC
:102EB000B0F5005FF8D30198401C01900198B0F57F
:102EC000805F02D200200090F1E702B0704780B529
:102ED0000100002000F04AFE01BD2DE9F043ADF5F0
:102EE000137D0700884616001C000020ADF8020084
:102EF0000020ADF80000002002900020ADF8040092
:102F00000020ADF80600404601F04CF80290DFF8D2
:102F1000A0532888002801D028698047DFF894034F
:102F20000078002800F033812888002800F0118103
:102F3000BDF90600411CADF806103A00010089B247
:102F40000020EB6898474746404601F02BF8029076
:102F50006888A97990FBF1F0ADF804003800471CAF
:102F600000780028FAD10020ADF800000EE07F1EA6
:102F700038782F2802D038785C2804D1BDF80000BA
:102F8000401CADF800000298401E0290BDF8000001
:102F9000022802DA02980028E9D50298002806D40F
:102FA0007A1CDFF8141353A801F018F80EE0BDF8EE
:102FB0000000002805D13A00C04953A801F00EF8DE
:102FC00004E03A00BC4953A801F008F80020ADF82D
:102FD000020042E0BDF80010BDF80020BDF802304C
:102FE00053AF9BB2BDF90400434313FA82F0385C3F
:102FF00043AA89B25054BDF80000401CADF800004F
:10300000BDF8000080B2BDF9041088420EDA53A862
:1030100000F0C8FFBDF80020BDF802309BB2BDF93A
:1030200004104B4313FA82F18842D3D2002043A903
:10303000BDF800208854BDF90600411CADF806100B
:1030400043AAE97911FB00F189B20020EB689847A7
:10305000BDF80200401CADF80200BDF8027053A894
:1030600000F0A0FFBDF90410B0FBF1F0401CBFB2AE
:10307000874203D20020ADF80000C1E7320090493A
:1030800053A800F0ABFFBDF90600411CADF80610D7
:1030900053AAE97911FB00F189B20020EB68984747
:1030A000002C74D00020ADF8020041E0BDF8001003
:1030B000BDF80020BDF802309BB2BDF904004343C7
:1030C00013FA82F0205C43AA89B25054BDF8000084
:1030D000401CADF80000BDF8000080B2BDF904103E
:1030E00088420EDA200000F05DFFBDF80020BDF838
:1030F00002309BB2BDF904104B4313FA82F18842AF
:10310000D4D2002043A9BDF800208854BDF90600A0
:10311000411CADF8061043AAE97911FB00F189B210
:103120000020EB689847BDF80200401CADF8020093
:10313000BDF80260200000F035FFBDF90410B0FBBF
:10314000F1F0401CB6B2864221D20020ADF800005A
:10315000C1E74FF4807100220DF10C09484600F0E0
:10316000C5F83800A9688847002C07D000943300C0
:103170004246544903A800F031FF05E033004246BF
:10318000514903A800F02AFF03A8A96888470DF554
:10319000137DBDE8F08310B546480078002809D0BB
:1031A0004B4C2100002000F0EFFC01222100474899
:1031B00000F05FFF10BD10B514002200D2B2002055
:1031C00000F0C5FC200010BD38B50C001500C0B2E1
:1031D000002803D13F480078002800D131BD3E4986
:1031E0000878002800D0FEE70878401C087001F03D
:1031F00049F900232A0021003848FFF76EFEFFF747
:103200004BFEF6E710B514001A00C0B2002808D132
:1032100028480078002804D00B0021003048FFF730
:103220005CFE10BD002101804FF6FF71418081805E
:10323000FF218171C171002181600021C1600021E5
:10324000016170471A4902880A8042884A80828850
:103250008A8082798A71C279CA7182688A60C268FA
:10326000CA6000690861012012490870704700B502
:1032700085B06846FFF7D6FF1A4802906846FFF708
:10328000E1FF05B000BD80B5FFF7F1FF002300228C
:103290005FF4E131002000F09DFD4023124A00213F
:1032A0000A4801F086F80121002000F014FD01BD5C
:1032B00000100228B110022844BC081024BC0810D9
:1032C00050BC08107CBA081068BB0810D00F022848
:1032D000B210022864070228B310022834BC081078
:1032E0005CBC0810CF2E0810A00E022862F30F223B
:1032F00062F31F42401810F0030308D0C91A1FD30D
:10330000DB0748BF00F8012D28BF20F8022D13006D
:1033100030B414461546103928BF20E93C00FAD8CD
:10332000490728BF20E90C0048BF40F8042D890058
:1033300028BF20F8022D48BF00F8012D30BC70478F
:10334000C91818BF00F8012DCB0728BF00F8012DC0
:103350007047F0B40246106895681318506803EB84
:103360005004C00748BF4D44A3422DD013F8016B51
:1033700016F0030004BF13F8010BC01C31090F291C
:1033800007D113F8011B0F3103E013F8017B05F897
:10339000017B401EF9D10029E6D013F8010BC6F3DA
:1033A0008106032E08BF13F8016B00EB0620404294
:1033B00028440026B71E8F421EBF10F8017B05F877
:1033C000017B761CF6D1CFE7F0BC02F10C00704710
:1033D00030B4614B1818C009604C14EB0014042978
:1033E0000DD223681F25C8008540AB43D2B212F02E
:1033F0001F02C90012FA01F1194321600CE0091FF4
:1034000063681F25C8008540AB43D2B212F01F028B
:10341000C9008A401A43626030BC7047002A04D158
:10342000012212FA01F1416003E0012212FA01F1D6
:103430008160704710B48900436C0F248C40A34313
:1034400012F00F0212FA01F11943416410BC7047E7
:1034500010B4836C01248C40A34312F0010212FAD1
:1034600001F11943816410BC704710B4C36C01248E
:103470008C40A34312F0010212FA01F11943C16416
:1034800010BC704710B449001031C36C03248C4049
:10349000A34312F0030212FA01F11943C16410BCF4
:1034A00070474269012212FA01F141614069704797
:1034B00010B4836901248C40A34312F0010212FA74
:1034C00001F11943816110BC704710B44900036CCD
:1034D00003248C40A34312F0030212FA01F11943B2
:1034E000016410BC7047F8B505000E0014000027F9
:1034F000002D2ED0002C2CD0226831002800FFF7A0
:103500008DFF227A31002800FFF762FF62693100E7
:103510002800FFF79DFFA26931002800FFF7A5FFF3
:10352000E26931002800FFF7ADFF62683100280032
:10353000FFF780FFE26831002800FFF7C6FF310087
:103540002800FFF7AEFF226931002800FFF7B0FF27
:1035500000E0034F3800F2BD0000CFBF0000304054
:1035600001005A000122002800F0EC80002900F040
:10357000E980754A12680B7A63F392420B7B13F071
:10358000030363F311420B7813F0070363F31A622A
:103590008B7863F39E7291F8283063F3000291F800
:1035A000343063F341020B7F63F382024B7F63F39A
:1035B000C30291F8403063F38A2291F84030DBB2C5
:1035C0005B08DBB263F3492291F8703063F30822A1
:1035D00091F8713013F0030363F30D3202600A7A3D
:1035E000002A02D10022826007E00A7A012A02D171
:1035F0004A69826001E0012282600A6A02614A6AC5
:103600004261CA6A82610A6BC2614A6902628A695E
:1036100042624E4A126891F8443003F0FF03120AE6
:1036200012021A4391F84C3003F0FF0363F3174280
:1036300091F85C3003F0FF0363F31F6291F86C3084
:1036400003F0FF0363F30F224264414A126891F8CA
:10365000643003F0FF0363F30F2291F8543003F05A
:10366000FF03120A12021A4382643A4A126891F85E
:10367000413013F00303920892001A4391F860302E
:1036800013F0030363F38B2291F8483013F0030324
:1036900063F3051291F8503013F0030363F309222A
:1036A00091F8583013F0030363F3871291F86830F0
:1036B00013F0030363F38302C264274A126891F88C
:1036C000723013F00703D208D2001A4391F8733016
:1036D00013F0070363F30612426591F83520826701
:1036E0001E4A12680B7C13F00303920892001A43DF
:1036F000CB7C13F0030363F387124B7C13F00303BB
:1037000063F383028B7C13F0030363F305120265FA
:10371000134A1268CB8863F31F428B889BB21B0A43
:103720009BB263F30F220B78052B06D1097901F0C8
:10373000FF01120A12020A4302E0497861F307020C
:10374000026300221000704774BD081078BD081095
:103750007CBD081080BD081084BD081088BD08100D
:103760008CBD0810016851F0004101607047403085
:10377000016851F01001016070470268531C03603A
:1037800011707047022801D3012010E00B00DBB25A
:10379000042B01DB01200AE0DFF8C43703EB8000D3
:1037A000C9B2405C824201D3012000E00020704792
:1037B000F8B504000F0015001E00022C01D30120F3
:1037C0002AE02A003900C9B22000FFF7DBFF0128F8
:1037D00001D1012020E006983900C9B202291ED18A
:1037E000B6F5803F19D2202817D24FF4C052DFF827
:1037F000741763030B4403EB850313441F6866F3DC
:1038000017271F606403214401EB850111440A68F6
:1038100060F3C7020A600020F2BD0120FCE7FFB29E
:10382000032F1FD1B6F1807F1AD2202818D24FF46F
:10383000E052DFF8301763030B4403EB85031344B6
:103840001F6807F0FF0757EA06271F60640321443B
:1038500001EB850111440A6860F3C7020A60DAE7E8
:103860000120D9E70120D7E700B20012C0B27047AB
:10387000F8B505000E001700280000B2FFF7F4FFAE
:1038800004002000C0B2022801D3012024E03A0045
:103890003100C9B22000C0B2FFF774FF012801D186
:1038A000012019E0DFF8BC162000C0B24003084434
:1038B0002A00D2B200EB8200D0F8000CF6B266F318
:1038C000092067F30700E4B264032144EDB201EB81
:1038D0008501C1F8000C0020F2BD70B504000D0098
:1038E0001600022C01D301201DE032002900C9B2CC
:1038F0002000FFF747FF012801D1012013E0DFF886
:1039000064166003085850F0004050F0407050F4C6
:103910007F00EDB265F3092066F30700620388506B
:1039200064030859002070BDD0F840037047D0F8F8
:103930000803C005C00D7047C0F840127047D0F8AA
:103940000802C005C00D7047D0F80802C0F3C030AF
:10395000704738B505002800FFF7F1FF0400280084
:10396000FFF7F2FF0419002C01D1012000E0002034
:10397000C0B232BDC0F8C81F7047D0F8C80F70473A
:10398000C0F8881F7047D0F8880F7047016851F061
:1039900000410160704738B504001500C9B2002924
:1039A00006D002291ED010D3042935D027D340E0F9
:1039B000DFF8B405A06001202073112060734FF47C
:1039C0008C70E0811220208239E0DFF8A005A06031
:1039D000012020731120607340F21D10E0816B20E4
:1039E00020822CE0DFF88805A060012020731120E0
:1039F00060734FF48E70E0816A2020821FE0DFF850
:103A00007405A060022020731120607340F21B1027
:103A1000E0816920208212E0DFF85C05A0600120CF
:103A20002073132060734FF48D70E0816820208232
:103A300005E07B22DFF844150020FFF7C5FBEDB25F
:103A4000002D06D0022D1ED010D3042D35D027D343
:103A500040E0DFF814052060002020711120607123
:103A60004FF48C70E0811220208239E0DFF8FC04F2
:103A70002060002020711120607140F21D10E08153
:103A80006B2020822CE0DFF8E80420600020207109
:103A9000112060714FF48E70E0816A2020821FE057
:103AA000DFF8D0042060012020711120607140F205
:103AB0001B10E0816920208212E0DFF8BC04206046
:103AC00000202071132060714FF48D70E081682018
:103AD000208205E0A722DFF8A4140020FFF774FB82
:103AE00031BD10B5C0B2002806D002280AD006D3D6
:103AF00004280DD009D30EE0DFF8844411E0DFF88C
:103B000084440EE0DFF880440BE0DFF8804408E0F6
:103B1000DFF87C4405E0BC22DFF860140020FFF7EA
:103B200053FB200010BD38B50400DFF86854C9B25B
:103B30002000C0B255F82000FFF7FEFE2000C0B202
:103B400055F82000FFF705FF0028F7D031BD70B50C
:103B500005000E00140006E031782800C0B2FFF71F
:103B6000E2FF641E761C002CF6D170BD38B504004F
:103B70000D0005E029782000C0B2FFF7D4FF6D1CCE
:103B800028780028F6D131BD70B504000D00002062
:103B9000DFF800642000C0B256F82000FFF7C7FE2F
:103BA000002807D0E4B256F82400FFF7BDFE2870C5
:103BB000012000E00020C0B270BD70B505000C000F
:103BC000DFF8D0632800C0B256F82000FFF7DBFE14
:103BD0004008400001002800C0B256F82000FFF75E
:103BE000CFFE2800C0B256F82000FFF7CCFE30F020
:103BF000020001002800C0B256F82000FFF7C0FE06
:103C00002800C0B256F82000FFF7BDFE30F02000BB
:103C100001002800C0B256F82000FFF7B1FE2800CE
:103C2000C0B256F82000FFF7AEFE30F040000100B1
:103C30002800C0B256F82000FFF7A2FE2800C0B24C
:103C400056F82000FFF79FFE30F01000010028001A
:103C5000C0B256F82000FFF793FE2800C0B256F815
:103C60002000FFF790FE30F4807001002800C0B201
:103C700056F82000FFF784FE2800C0B256F8200056
:103C8000FFF781FE30F4806001002800C0B256F8D2
:103C90002000FFF775FE002C0ED02800C0B256F8A9
:103CA0002000FFF76AFE50F400700100EDB256F8F4
:103CB0002500FFF765FE0DE02800C0B256F8200091
:103CC000FFF75BFE30F400700100EDB256F82500FE
:103CD000FFF756FE70BD70B505000C00DFF8B4624A
:103CE0002800C0B256F82000FFF747FE4008400009
:103CF00001002800C0B256F82000FFF73BFE280064
:103D0000C0B256F82000FFF738FE30F0080001007E
:103D10002800C0B256F82000FFF72CFE2800C0B2E1
:103D200056F82000FFF729FE30F02000010028009F
:103D3000C0B256F82000FFF71DFE2800C0B256F8AA
:103D40002000FFF71AFE30F4807001002800C0B296
:103D500056F82000FFF70EFE2800C0B256F82000EB
:103D6000FFF70BFE30F4007001002800C0B256F8D7
:103D70002000FFF7FFFD2800C0B256F82000FFF733
:103D8000FCFD30F4006001002800C0B256F82000AD
:103D9000FFF7F0FD002C0ED02800C0B256F820002E
:103DA000FFF7EBFD50F004000100EDB256F82500DE
:103DB000FFF7E0FD0DE02800C0B256F82000FFF745
:103DC000DCFD30F004000100EDB256F82500FFF7ED
:103DD000D1FD70BD2DE9F841A7B005000F00160018
:103DE00028003100C0B2C9B2884201D1012000E0F0
:103DF00000201C00DFF8848140F29B124146C0B2D3
:103E0000FFF7E2F928002100C0B2C9B2884201D10F
:103E1000012000E000204FF4CE724146C0B2FFF70F
:103E2000D3F902A8142100F055FB342100220DF132
:103E300068084046FFF75AFA4C2100220DF11C0891
:103E40004046FFF753FAFF003A0000235248002192
:103E500000F044FB07002200D2B23100C9B202A830
:103E6000FFF799FD08201B909DF80D008DF870005C
:103E70001AAA9DF80C100298FFF735FB06201B903C
:103E80009DF80D008DF870001AAA9DF81410049882
:103E9000FFF729FB002007900820089008200990D0
:103EA00002200B9000200C90002012900020149013
:103EB000384C2800C0B254F8200000F069FD3749A2
:103EC0002A00D2B2382042430A4407A92800C0B2CF
:103ED00054F8200000F01AFC2800C0B254F820006A
:103EE000FFF754FD00220321BDF91600FFF7C0FCC7
:103EF000BDF91600FFF7B8FC17F01F010091C7F3DA
:103F0000571300220321C0B2FFF752FCBDF916007F
:103F1000FFF7AAFC00220321C0B2FFF7DEFCBDF9C7
:103F20001800ADF800000320ADF8020001208DF864
:103F3000040007221A482900C9B250F82110684627
:103F400000F0ACFA00212800C0B2FFF7C4FE002147
:103F50002800C0B2FFF731FE28B0BDE8F0810000B4
:103F6000F8BC08100000044000003140000231405D
:103F7000000531408008314000073140ACB80810DE
:103F800000006040000065400000644000006340A5
:103F9000000062404007022800809698D00B02285B
:103FA0002C07022800F10103810704D010F8011B3F
:103FB000820781B1FAD10268A2F10131914311F077
:103FC000803104BF50F8042FF6E709BAB1FA81F145
:103FD00000EBD100401CC01A704700000CB430B593
:103FE00083B00A4606A90291044600250194009573
:103FF00002AB01A9084878441E3000F014FD019A74
:10400000157000284EBF04460198041B204603B0DB
:1040100030BC5DF80CFB00BF63F7FFFF82688918B6
:10402000816003E082684169521A82608168426956
:104030009142F7D27047C2688918C16003E0C26834
:104040004169521AC260C16842699142F7D2704711
:1040500010B50400002C01D0012000E000207022E7
:10406000DFF88813C0B2FFF7AFF860692169401A22
:1040700010BD2DE9F84305001600002D01D00120E8
:1040800000E000200C00AA22DFF86013C0B2FFF7A6
:104090009BF800270020002C01D10327B5E02878E9
:1040A00010F0050F01D00427AFE0287850F004008D
:1040B00028702869B042C0F0A380D5F81480A868A1
:1040C000B8EB0008B04567D26878002803D0022812
:1040D00041D01FD390E0424621006868AB6800EBF6
:1040E0000309484601F026FB41462800FFF796FFEA
:1040F000B6EB080204EB08016868AB6800EB030448
:10410000200001F017FBB6EB080841462800FFF736
:1041100085FF71E05FEA480221006868AB6800EB48
:104120004309484601F006FB41462800FFF776FFA9
:10413000B6EB0802520004EB48016868AB6800EB7C
:104140004304200001F0F6FAB6EB080841462800C7
:10415000FFF764FF50E05FEA880221006868AB68FF
:1041600000EB8309484601F0E5FA41462800FFF7D5
:1041700055FFB6EB0802920004EB88016868AB6853
:1041800000EB8304200001F0D5FAB6EB08084146A5
:104190002800FFF743FF2FE06878002803D00228AB
:1041A0001DD00ED328E0320021006868AB6800EB18
:1041B0000304200001F0BEFA31002800FFF72EFFB3
:1041C0001AE0720021006868AB6800EB430420002D
:1041D00001F0B0FA31002800FFF720FF0CE0B20038
:1041E00021006868AB6800EB8304200001F0A2FAAC
:1041F00031002800FFF712FF2869861B2E6100E0BE
:104200000527287810F0FB0028703800C0B2BDE800
:10421000F2832DE9F04705000E001F00002D01D0AC
:10422000012000E000201400DFF8C08140F25B12A2
:104230004146C0B2FEF7C8FF002C01D0012000E0CB
:1042400000204FF4AE724146C0B2FEF7BDFF5FF0F2
:10425000000800200020002E02D15FF003088BE050
:10426000297811F0030F03D020605FF006089CE06E
:104270002800FFF7EDFE2168884209D220605FF038
:104280000708002804D1287810F0F70028708CE087
:10429000287850F008002870D5F81490E868B9EB39
:1042A00000092068814522D36878002803D00228BD
:1042B00013D008D35CE022686868E96801443000E4
:1042C00001F038FA54E0226852006868E96800EBAF
:1042D0004101300001F02EFA4AE02268920068683D
:1042E000E96800EB8101300001F024FA40E06878D1
:1042F000002803D0022827D011D339E04A46686845
:10430000E9680144B246504601F014FA2268B2EB63
:10431000090269684E44300001F00CFA28E05FEAB7
:1043200049026868E96800EB4101B246504601F075
:1043300001FA2268B2EB09025200696806EB4906ED
:10434000300001F0F7F913E05FEA89026868E96874
:1043500000EB8101B246504601F0ECF92268B2EB65
:1043600009029200696806EB8906300001F0E2F963
:10437000287810F0F7002870FFB2002F15D12878A8
:104380000B2802D15FF002080FE0287850F00200FD
:10439000287021682800FFF74EFE2969206841181F
:1043A0002961287810F0FD0028704046C0B2BDE8B1
:1043B000F087F8B504000E0017001D00002C01D096
:1043C000012000E000204FF407720849C0B2FEF758
:1043D000FBFE002067600021217066700021A16053
:1043E0000021E16025616561C0B2F2BD34B80810FA
:1043F000010009B2002908D4012210F01F018A40EF
:104400001B4900B2400941F820207047010009B261
:10441000002908D4012210F01F018A40154900B27A
:10442000400941F820207047020012B2002A04D44B
:104430004901114A00B2115407E049010F4A00B284
:1044400010F00F00104400F8041C7047002800D141
:1044500062B60B480168491C0160704772B6084992
:104460000868002802D00868401E08600868704785
:1044700000E100E080E200E000E400E018ED00E090
:104480009010022880B5FFF7E9FFFEF7D1FB01BDD0
:1044900080B5C9B200B2FFF7C7FF01BD70B5040017
:1044A0000D001600200001F099F92900B4F9000070
:1044B00001F0D3F93100C9B2B4F90200FFF7E8FF07
:1044C000B4F90200FFF7A2FFB4F90200FFF790FF72
:1044D00070BD0000002201F0D7B90000BBBBE1B104
:1044E000B2F5803F80F07E80022A1ED98C46B1FB57
:1044F000F2F102FB11C31B0443EA1043B3FBF2FCCD
:1045000002FB1C3380B240EA0343B3FBF2F002FB30
:10451000103240EA0C4000237047022A05D9844635
:10452000B0FBF2F002FB10C270474AB105D100F0B7
:10453000010249085FEA30007047002200237047FB
:1045400001F0BCB90B00020000210020704790422E
:1045500071EB030CF6D3B3F5803F2FD2F0B5B3FA6D
:1045600083F7B1FA81F4A7F10F0E3D1B5340CEF152
:10457000200602FA0EF2F3415340B5F10F0746D878
:104580000F3C2C444140C4F12006A040F141414081
:10459000B1FBF3F603FB1611A2FB0645001BA94174
:1045A00002D2761E8018594180EA010221FA0EF3E8
:1045B00062FA0EF200215A403046F0BD30B4B1FB31
:1045C000F3FC03FB1C11A2FB0C45001BA94103D209
:1045D000ACF1010C8018594130BC02460B466046D4
:1045E00000217047B2F1807F65D3F0B5B2FA82F74F
:1045F000B1FA81F4C7F10F063D1B22FA06F307F169
:10460000110EF24120355A40B5F10F07B8D941409B
:10461000C4F12006A040F1414140B1FBF3FC03FB93
:104620001C11A2FB0C45001BA94103D2BCF1010CDB
:10463000801859410F2F12D30F3FC90341EA50414F
:10464000B1FBF3F603FB1611A2FB0645D4EBC03019
:10465000A94102D2761E8018594146EACC3C07B3E4
:104660004140C7F12006B840F1414140B1FBF3F6AB
:1046700003FB1611A2FB0645001BA94102D2761EC0
:104680008018594180EA010221FA0EF3C7F1200493
:1046900062FA0EF20CFA07F05A402CFA04F1304399
:1046A000F0BD80EA010221FA0EF3002162FA0EF257
:1046B00060465A40F0BD8C46B1FBF2F102FB11C3DB
:1046C0001B0243EA1063B3FBF2FC02FB1C331B0228
:1046D0004CEA002043EA1063B3FBF2FC02FB1C33FC
:1046E0001B024CEA002043EA1063B3FBF2FC02FB1E
:1046F0001C331B024CEA002043EA1063B3FBF2FCBC
:1047000002FB1C324CEA0020002370472DE9F44FD5
:10471000DFF8D822DFF8D8321B68DFF8D8422468E7
:10472000DFF8D4522D68DFF8D4623668DFF8D07233
:104730003F68DFF8D0C2DCF800C0DFF8CCE2DEF87A
:1047400000E0DFF8C882D8F80080DFF8C492D9F81A
:104750000090DFF8C0A2DAF800A0002800F0158170
:10476000002900F012810A68022A06D191F8262059
:10477000002A02D15FF0000B03E0D1F804B0BBF1D6
:10478000010B91F82420002A01D0012200E0002230
:1047900062F3104333F440436BF30303022262F3EA
:1047A000196303600A7812F0030262F31964046467
:1047B00091F82520002A01D0012200E0002262F3B6
:1047C0008615CA7E002A01D0012200E0002262F391
:1047D0008A254A7E002A01D0012200E0002262F3ED
:1047E00008258A7E002A01D0012200E0002262F31F
:1047F00049258A6B521E12F00F0262F313450A69B3
:10480000521E12F00702ED08ED0015434A6962F3EB
:1048100004154A69520862F3451585640A7B002A2B
:1048200001D0012200E0002262F308260A7E002A5D
:1048300001D0012200E0002262F349268A68521E5C
:1048400012F01F02760976011643C0F800630A7F52
:1048500002F0FF023F0A3F02174391F8202002F0C6
:10486000FF0262F31747C0F8107391F82720002A5F
:1048700001D0012200E0002262F3082C0A69521ED6
:1048800012F007025FEADC0C5FEACC0C52EA0C0C77
:104890004A6962F3041C4A69520862F3451CC0F875
:1048A00044C00A7B002A01D0012200E0002262F30A
:1048B000082E8A68521E12F01F025FEA5E1E5FEA2F
:1048C0004E1E52EA0E0E0A68012A01D1012200E0B2
:1048D000002262F3104EC0F800E291F83C2002F092
:1048E000FF025FEA18285FEA082852EA0808C0F8C1
:1048F000048391F82820002A01D0012200E0002240
:1049000062F35969CA6A012A01D1012200E000223A
:1049100062F318694A6B012A01D1012300E00023E8
:10492000009A63F3104991F8303003F0FF035FEA17
:1049300019295FEA092953EA0909C0F8509091F84A
:10494000443003F0FF035FEA1A2A5FEA0A2A53EAB7
:104950000A0AC0F804A28B6CC0F8883F096CC0F842
:10496000C81F002A10D000205060002010600020D6
:1049700090600020D060002010620020D0620020F3
:104980001063DFF89400506300221000BDE8F28F3E
:10499000DFF8881001605FF4401101640021816438
:1049A00040F20711C0F800130022C0F804230022CF
:1049B000C0F8102300224264C0F800120021C0F8A1
:1049C0000412002101650021C0F8C81E0021C0F8B2
:1049D000881E0021C0F8C81F0021C0F8881F0021D0
:1049E000C0F8081F0021C0F8481F70470160AA00E6
:1049F00030BD081034BD081038BD08103CBD08108B
:104A000040BD081044BD081048BD08104CBD08103A
:104A100050BD081054BD0810EFCDAB000F000003CF
:104A200040F0200070472DE9F14FB0B0914604915D
:104A30000DF142013A9A21914A7000210DF195023F
:104A40001E460D912F920BE019F8011B0498309A25
:104A500090470028049000F063850D98401C0D904D
:104A600099F8000050B12528EED1002100220791CD
:104A7000089209910A920B910C9204E00D9800F0B3
:104A800051BD41F0010119F8010F2028F9D0232868
:104A90000CD02B2804D02D2805D0302809D00BE0CD
:104AA00041F00201EFE741F00401ECE741F00801B9
:104AB000E9E741F01001E6E72A280DD1326852F803
:104AC000040B326000280F9003D540420F9041F054
:104AD000040109F1010914E00F92DFF8A83B0AE094
:104AE0000F98984205DA00EB800402EB4402303A5A
:104AF0000F9209F1010999F80020A2F130000A286B
:104B0000EED399F800002E2803D04FF0FF320E921A
:104B100027E019F8010F2A2807D1306850F8042B34
:104B200030600E9209F101091BE02D280CBF09F13C
:104B30000109002000220E92DFF8484B0BE040B93B
:104B40000E9AA24205DA02EB820503EB4503303BE5
:104B50000E9309F1010999F80030A3F130020A2AF5
:104B6000EDD3ADF840100FF6603099F8001000F06A
:104B7000A7FE08B119F8010B8DF842009DF842001C
:104B8000682805D199F8000068280CD1622106E058
:104B90006C2804BF99F800006C2804D171218DF8AD
:104BA000421009F1010912A9069119F8012B8DF89B
:104BB00000201746B7F1250026D02038022840F201
:104BC0007981133800F0EC830B3800F07684401EB6
:104BD00000F02B84401E022840F26C81001F00F080
:104BE0002484401F00F0EC80401E00F0D983401E5A
:104BF00000F0D780C01E0CD0801E00F0D183C01EF4
:104C000000F0CE8300F062BC01220792252100F063
:104C10005ABC306850F8044B3060002C059440F0CA
:104C2000AD8021994878002800F0A4804FF0FF342F
:104C30000FF6CC2000F050FE241A40F0718400F0F2
:104C400053BC01236A4602A9384600F025FD00281E
:104C500040F06684641EF4D13097079C0DF148083B
:104C600074B1309F18F8011B0498B84700280490CD
:104C700000F056840D98401C641E0D90F2D13097C0
:104C80000A9C3021002C8DF800100CDD309F012390
:104C90006A4602A9384600F0FFFC002840F0408434
:104CA000641EF4D13097DDF81480089C74B1309FF5
:104CB00018F8011B0498B8470028049000F03084CD
:104CC0000D98401C641E0D90F2D130970B9C302142
:104CD000002C8DF800100CDD309F01236A4602A9DC
:104CE000384600F0D9FC002840F01A84641EF4D144
:104CF000309705980899099C00EB010874B1309F22
:104D000018F8011B0498B8470028049000F00884A4
:104D10000D98401C641E0D90F2D130970C9C3021F0
:104D2000002C8DF800100CDD309F01236A4602A98B
:104D3000384600F0B1FC002840F0F283641EF4D144
:104D400030979DF8400041077FF58AAE2020002D66
:104D50008DF800007FF784AE309C01236A4602A9DB
:104D6000204600F099FC002840F0DA836D1EF4D153
:104D7000309475E60FF6A4100590B5E30E9D002D56
:104D800004D52046FFF70EF9044608E02A46002124
:104D9000204600F0C1FD002814BF041B2C460894D7
:104DA000A2E3316851F8040B316020F000040021C7
:104DB00021F0FF35CDE9024512AB0593782178E368
:104DC0002199487820B14FF0FF340FF6041031E7F5
:104DD0009DF84200622853D0682815D06A2836D042
:104DE0006C2806D071283CD0742825D07A2818D099
:104DF00053E0316851F8040B3160002857D14FF06F
:104E0000FF340FF6E40015E7316851F8040B316008
:104E100020B94FF0FF340FF6D0000BE70D99018059
:104E200062E3316851F8040B316000283FD14FF044
:104E3000FF340FF6B400FDE6316851F8040B316021
:104E4000002834D14FF0FF340FF69C00F2E63168B1
:104E500051F8040B316070B94FF0FF340FF6880041
:104E6000E8E6316851F8040B316020B94FF0FF34A7
:104E70000FF67400DEE60D9AD317C0E9002333E382
:104E8000316851F8040B316020B94FF0FF340FF650
:104E90005800CFE60D99017026E3316851F8040BF4
:104EA000316020B94FF0FF340FF63C00C2E60D9997
:104EB000016019E39DF842004C2807BF3168CA1D04
:104EC0003068C21D22F007023260D2E900010832C8
:104ED0003260CDE90201C80F02D007982D210AE007
:104EE000BDF84000810702D507982B2103E0C007D9
:104EF00005D50798202112AA1154401C079012A82A
:104F000007994518DDE90201CDE92201059525AC97
:104F10000E98002848BF062007D402BF9DF8000065
:104F200040F02000672801D101200E90DDE9020148
:104F30004A0042EAD07253154FEAE27B4FF0FF324B
:104F4000934508BF93420FD1090341EA1051000372
:104F5000002908BF002807D0613F03201A2F0890BE
:104F600017D30FF2C0710FE0DDE902014A005215BC
:104F700012F1010F10D108030ED1613F03201A2F47
:104F800008901AD30FF2A4710322284600F0D2FB36
:104F9000AAE20FF28C71F7E7DDE9020101AA00F045
:104FA000E7FCCDE9020120F0000231F0004308BF28
:104FB000002A05D100270025B7E00FF26C71E3E766
:104FC0000199DFF8C42647F29750414391FBF2F272
:104FD0000192DDE92245C2F10702002A25F00045D1
:104FE00004DD2046294600F02AFB0BE05242002057
:104FF000DFF8981600F023FB02460B4620462946B0
:1050000000F0EEFC04469DF8000040F0200A0D463A
:10501000BAF1660F06BF019800F10A084FF00608C2
:105020000E988044B8F1140FC8BF4FF01408302018
:105030008DF894000DF19507B8F1000F36DD20468C
:10504000294600F0D6FC01460A4607F10803042071
:105050000A27B2FBF7F707EB870EA2EB4E023032BE
:1050600003F8012C0A22B7FBF2F202EB820EA7EB47
:105070004E073037401E03F8027DE9D1A8F1080839
:10508000B8F1000F03F10807D6DD084600F0B8FCC0
:1050900002460B462046294600F0B9FC0022DFF804
:1050A000F03500F0BDFC04460D46C8E72F983F1AC6
:1050B0000DF1950404E00198401E7F1E0190641CD0
:1050C00020783028F7D0BAF1660F02D10198401C41
:1050D00004E0BAF1650F0CBF012000200E994018C2
:1050E0008742B8BF781E00281DD4B84204DA215C7C
:1050F0003429C8BF392100DC30210246631E9D18C7
:1051000000E0401E15F80179521E8F42F9D039296E
:1051100002D1A15C491CA154002A04D50199491C63
:105120001C46401C01910746019D9DF80080DDF85A
:1051300038A038B2002802DC01270FF2F45448F0FE
:105140002000662808BF6D1C17D067280FFA85FB62
:105150005AD11BF1040F43DBD34541DA9DF84000DF
:105160006D1C010703D438B25045D8BF824628B21F
:10517000BAEB000A48BF4FF0000A0FFA85F8B8F101
:10518000000F00F3AA800898411C0891302205996D
:105190000A54BAF1000F03DC9DF84000010705D561
:1051A0000898411C08912E2205990A541AEB080F01
:1051B000B8BFCAF100052DB26842AA443AB20B90BA
:1051C0009245B8BF5746059B08983FB209973A46A3
:1051D0002146184400F0AEFAAAEB07000C90C8E094
:1051E00038B2504504DA9DF840100A0758BF82468D
:1051F000BAF1010A48BF4FF0000AB8F1670F0CBFBF
:105200004FF065084FF045080898411C0891BAF125
:10521000000F059914F8012B0A5403DC9DF8400097
:1052200001071BD50898411C08912E2205990A54A4
:10523000BAF1000F12DD7F1E38B28245B8BF574663
:105240000598089B3AB22146184400F073FA089872
:105250003FB238180890AAEB07000B900598089900
:105260000844BBF1000F80F8008003D42B22427069
:10527000811C04E02D2141705D46811C6D4200209F
:1052800022AA0A2409E02B4693FBF4F505EB8507D7
:10529000A3EB470302F8013B401C2DB2002DF2DCCA
:1052A000012806DC48F02002652A04BF302201F8FC
:1052B000012B002822AA08D1302001F8010B06E0BA
:1052C000401E135C303301F8013B0028F8DC059ADE
:1052D00008981044091A09914BE038B229B2884263
:1052E0001DDA0598089B3AB22146184400F022FACC
:1052F00008993FB279180891A8EB0700BAF1000F9E
:105300000B9003DC9DF84000020705D5059A2E207E
:1053100050540999491C0991CDF830A029E005980D
:10532000089B2AB22146184400F004FA08987F1B13
:105330004044BAF1000F089003DC9DF840100A07C2
:1053400004D5411C08912E2205990A5438B2824591
:10535000B8BF57460598089B3AB204EB08011844B9
:1053600000F0E8F908983FB23818AAEB0707089050
:105370000B979DF8400000F01400102840F0B48016
:10538000079A08980B99821809988A1882180C981D
:105390000F998018884280F2A780081A0A90A3E02B
:1053A0009DF84200622808D068280CD06A2810D0E6
:1053B0006C2818D071280CD015E0316851F8040B16
:1053C0003160C0B213E0316851F8040B316080B233
:1053D0000DE03068C21D22F007023260D2E9000100
:1053E0000832326004E0316851F8040B316000216A
:1053F000CDE902019DF84000010754D5DDE9022303
:10540000002B08BF002A4ED09DF8000040F020007D
:10541000782848D1079812A930220A54401C431C0E
:105420009DF8002007930A543DE09DF84200622851
:1054300008D068280CD06A2810D06C2818D07128A1
:105440000CD015E0316851F8040B316040B213E024
:10545000316851F8040B316000B20DE03068C21DB4
:1054600022F007023260D2E900010832326004E023
:10547000316851F8040B3160C117CDE902010029F0
:1054800002D507982D210AE0BDF84000810702D51A
:1054900007982B2103E0C00705D50798202112AA01
:1054A0001154401C079012A80799014405919DF8DA
:1054B000001002A800F039F816E0012007903068CB
:1054C00050F8041B30608DF848100DE001212522B2
:1054D0009DF8000007918DF8482028B19DF8000044
:1054E0008DF84900022107910F9D07990A986D1ABE
:1054F00008992D1A0B986D1A09992D1A0C986D1A86
:105500009DF840102D1A48073FF5A7AB2021002D2C
:105510008DF800107FF7A1AB309F2C46FFF791BBB1
:105520004FF0FF3031B0BDE8F08F2DE9FC47074662
:105530008A463C6950466F2808BF082505D0FFF70A
:105540006FFA782814BF0A251025D7E900013C26F8
:1055500080468946BAF1640F18BFBAF1690F05D1C8
:10556000002903D5D8F1000869EB4909B9F1000F0A
:1055700008BFB8F1000F0CD1386B50B9082D3AD1E3
:1055800097F83800010736D530223B2684F83B20B7
:1055900031E08DF800A0404649462A46EB17FEF759
:1055A0009DFF3032D0B2761E3A2801960EDAA2550F
:1055B000404649462A46EB17FEF790FF80465FEAD1
:1055C000010908BFB8F1000F05D108E09DF80000FF
:1055D0001218513AEBE7F868A1198842DBD3082D7D
:1055E00009D197F83800010705D5A05D302802D011
:1055F000761E3020A055C6F13C03BB61A119F960AD
:10560000386B834208DAC31A3B624FF6EF70398F6A
:1056100001403987BDE8F38700280ED597F8380098
:1056200000F01400102808D17A6B7969386A521A90
:10563000121AD21A002AC8BF3A62BDE8F3872DE9D0
:10564000D04306460F4614464FF00008DFF844905A
:1056500012E0E00707D542464B463046394600F097
:10566000DFF906460F464046494642464B4600F0A3
:10567000D7F9641080468946002CEAD13046394675
:10568000BDE8D083CBCCCC0CA08601000000F03F5D
:1056900084D7974100002440F8B505460E461746CA
:1056A0001C4600205CB117F8011BB068A847B06029
:1056B00030B1F06A401CF0620020641EF3D1F2BDEC
:1056C0004FF0FF30F2BD0000686A6C747A4C000045
:1056D0007072696E74665F733A20256E2064697318
:1056E000616C6C6F776564007072696E74663A20E5
:1056F00062616420256E20617267756D656E74004D
:105700007072696E74665F733A20626164202573FB
:1057100020617267756D656E740000000000000006
:105720006E616E004E414E00696E6600494E460045
:105730003000000062B38B0708D0521E11F8013B05
:1057400000F8013B00F024808B07F6D1830740F07E
:10575000208000BF103A07D330B4B1E83810103AB7
:10576000A0E83810F9D230BC530724BFB1E80810C4
:10577000A0E8081044BF51F8043B40F8043BD207AE
:1057800024BF31F8022B20F8022B44BF0B780370A2
:105790007047121F17D35B0009D151F8043B20F862
:1057A000023B1B0C121F20F8023BF6D20BE051F813
:1057B000043B00F8013B1B0A20F8023B1B0C121FA4
:1057C00000F8013BF3D238BF121D521E24BF11F85E
:1057D000013B00F8013BF8D87047000030B40021CD
:1057E000234A1368234A1468002832D0224A1568D5
:1057F000C5F303250E2D0FD01268C2F303220D2A24
:1058000028D1827812F00F0224092401144302796E
:10581000002A15D0012214E0827812F00F021B0931
:105820001B0113430279002A01D0012200E000226B
:1058300062F3DF73114AB0F9000042F8203009E04A
:10584000002262F3DF740E4AB0F9000042F82040F3
:1058500000E00649080030BC70470A4B1A68002A6D
:1058600003D01A6800B242F82010704701005600B9
:1058700058BD08105CBD08100000204000A020406A
:1058800000C02040F806022800B500BF130096466D
:105890009446103928BFA0E80C50FAD85FEA417C42
:1058A00028BF0CC048BF40F8042BC90728BF20F808
:1058B000022B48BF00F8012B00BD0000704700001C
:1058C000C9B202788A421AB11CBF10F8012FF9E759
:1058D00018BF00207047000080B500B906A0054938
:1058E0000B681BB122220021984701E000F0A1F8CB
:1058F000222002BD98100228636F6E737472616972
:105900006E742068616E646C65723A206261642016
:105910006D65737361676500C9B2830706D0521E57
:1059200022D310F8013B9942F7D11FE0083A13D374
:1059300002F1040241EA012141EA014150F8043B2D
:10594000121F21BF4B40A3F1013C2CEA030C1CF0B9
:10595000803FF3D0C9B2001F083210F8013B521E3D
:1059600028BF91EA030FF8D818BF0120401E7047E6
:1059700010B5144600F002F8226010BDC1F30A53BE
:1059800043B14A0012F5001F28D2A3F2FE32A1EB68
:105990000251704750EA410C20D001F0004C31EA2E
:1059A0000C01B1FA81F204BFB0FA80F3D2180B3ABD
:1059B000B2F120032CBF00FA03F1914041EA0C013F
:1059C0003EBFC2F1200C20FA0CF319439040524222
:1059D00040F2FD33D21A01EB0351704700227047A9
:1059E00041EC100B43EC112B80EE010B51EC100B32
:1059F000704741EC100BBCEEC00B10EE100A704764
:105A000000EE100AB8EE400B51EC100B704741EC61
:105A1000100B43EC112B30EE410B51EC100B704787
:105A200041EC100B43EC112B20EE010B51EC100B51
:105A30007047012000F000B880B5AFF30080024A43
:105A400011001820ABBEFBE726000200DFF8341877
:105A5000C0B20860704710B50100DFF8D8060078C2
:105A600000280CD10820DFF8D0261060C9B2012030
:105A700001F034F80820DFF81018086019E0DFF8AA
:105A8000BC06082202601022DFF8AC361A60DFF88C
:105A9000B04604222260022202600800C0B2FFF772
:105AA000D5FF02202060082020601020DFF8D817E2
:105AB000086010BD10B50100DFF8780600780028F6
:105AC00004D1C9B2012001F009F811E0DFF86C0639
:105AD00008220260DFF86846042222600222026087
