:020000041000EA
:1000000000000228F93C0010B53F0010113E00101E
:1000100000000000000000000000000000000000E0
:10002000000000000000000000000000993E0010E9
:100030000000000000000000B93F0010BD3F0010AC
:10004000E5370010093800102D3800105138001025
:100050007538001099380010BD380010E1380010D4
:10006000C13F0010C53F0010C93F0010CD3F001038
:10007000D13F0010D53F0010D93F0010DD3F0010E8
:1000800000B5012027490A6852080240002A01D021
:10009000022001E00968084000BD27480168080007
:1000A000C007C00F704700B5C21E022A01D301204D
:1000B00002E0C01E0860002000BD1CB5FF24694698
:1000C000FFF7F1FFC0B2002802D02000C0B207E065
:1000D0003C480099890041580800C007C00FC0B2D1
:1000E00016BD00B5002801D0032801D3012002E08D
:1000F000401E0860002000BD1CB5FF246946FFF7C4
:10010000F0FFC0B2002802D02000C0B208E03148A1
:10011000009909014018C1680800C007C00FC0B2AB
:1001200016BD0000241526402B48006881080800F1
:10013000C007C00F704700004015264038B50400C6
:100140002000C0B208280DD3244D182224492800CD
:1001500000F0B4FB0020E875224823490860002025
:1001600000F00CFC21482100C9B2890041580A0066
:10017000D205D20F002A05D0E4B2A10040580007F2
:10018000000F00E0FF2032BD38B505002800C0B2E6
:1001900008280ED3114C18221149200000F08EFBC4
:1001A0000020E075892000010F490860002000F060
:1001B000E5FB0E48EDB2A900405800098007800F0A
:1001C00032BD0000401626400C480068000AC0B24C
:1001D0007047000000192640100027403812002800
:1001E000DC3900105B080000D412002840122640C1
:1001F00003480068000AC0B2704700001010204099
:100200000810204038B50400072C0ED3124D1822D8
:100210001249280000F052FB0020E875CE20400073
:100220000F490860002000F0A9FB0A48A1004058CF
:100230004007400F010009B2042907D10448A1007A
:100240004058C106C90E80204000084300B232BDAC
:10025000000126400012264038120028683A00109B
:10026000D41200281E4909688A03920B0260090E05
:100270000A00D207D20FC271174909680A00D204D6
:10028000D20C82800A00120CD2B20281090CC9B2CF
:100290004181264909680F220B00134003730B09A3
:1002A0001A4042730A0AD204D20CC281090F89078C
:1002B000890F0174094909680A0A5207520F8271AD
:1002C0000A00120CD205D20D4282890F0A00D20711
:1002D000D20F027570470000341526403C152640A9
:1002E000301526401CB50C006946FFF7DCFE010006
:1002F000C9B2002901D0C0B217E00D4800998900A9
:1003000040584106490E21601F21020A0A406260DE
:10031000020C1140A160010F8907890F6173C00EA3
:100320000100C907C90F2173002016BD38152640EA
:10033000001626401CB50C006946FFF7D2FE0100EE
:10034000C9B2002901D0C0B233E01A4800990901AE
:100350004158CAB222601F220B0A134063600B0C83
:100360001A40A260090F8907890F217300990901BA
:1003700041184A68D10F61730721130F0B40002BFE
:1003800001D0012300E00023A3731202120A2261AC
:10039000009A120180188068C20F2275020E1300A5
:1003A000DB07DB0F63750200A275000C0140E175ED
:1003B000002016BD0019264080B50100864818228D
:1003C00000F000FB012085490870002002BD0000FC
:1003D00000B583490968C90F002907D07F4909780A
:1003E000002907D100210160032000BD0021016028
:1003F0000320FAE77849096801600020F5E700006A
:1004000010B50400FFF73CFE002803D10020206057
:1004100003200BE071480078002804D06E48806803
:100420002060002002E000202060032010BD00B505
:100430006A490978002904D06749496801600020A9
:1004400002E000210160032000BD000000B5654905
:100450000968C90F002907D060490978002907D128
:1004600000210160032000BD002101600320FAE7A4
:100470005949C96801600020F5E7000000B55A49F4
:100480000968C90F002907D054490978002907D104
:1004900000210160032000BD002101600320FAE774
:1004A0004D49096901600020F5E7000010B504001E
:1004B000FFF73AFE002803D10020206003200BE064
:1004C00046480078002804D0434840692060002056
:1004D00002E000202060032010BD000010B50C00D9
:1004E000C0B2FFF78FFE00280CD0401E0ED0401E79
:1004F00010D087214900401A10D0401E12D0C01ED3
:1005000014D017E02000FFF763FF16E02000FFF78C
:100510008EFF12E02000FFF773FF0EE02000FFF7D0
:1005200095FF0AE02000FFF7C1FF06E02000FFF77B
:10053000A5FF02E000202060032010BD80B501006F
:100540000020FFF7CBFF02BD80B50322D2B282426A
:1005500003D200200860012003E0401CC0B2FFF776
:10056000BDFF02BD30B587B004006846FFF7E6FF67
:100570000100C9B2002903D000212160C0B228E0E7
:1005800001A8FFF76FFE01AD287C022803D1009877
:10059000206000201DE07B480068C00F002808D0C4
:1005A000FFF77BFDC0B2002807D1002020600320A8
:1005B0000FE00098206000200BE00098019948436C
:1005C000A98800F03FFAE979491C00F03BFA206065
:1005D000002007B030BD000020120028F0120028D3
:1005E00018152640081526400C152640F0B58BB08E
:1005F00004000D0069462000C0B2FFF7A5FF01000E
:10060000C9B2002903D000212960C0B2B7E02000A0
:10061000C0B2022848D307A92000C0B2401CFFF78F
:1006200061FEC0B200280DD0824E182282493000EF
:1006300000F044F90020F0758048814908600020EE
:1006400000F09CF97F482100C9B2890040180838A1
:100650000068C00F002807D007A8407B022807D1F8
:100660000098286000208AE000982860002086E03A
:10067000E4B2641C2000FFF720FD0100C9B200298C
:1006800002D0C0B2FF2803D100202860032076E00A
:10069000009807994843089900F0D4F9099900F0A7
:1006A000D1F9286000206AE001A92000C0B2401CF6
:1006B000FFF740FEC0B200280DD05E4E18225E4902
:1006C000300000F0FBF80020F0755F485C490860DE
:1006D000002000F053F95D482100C9B209014058DB
:1006E000C00F002807D001AE307B022807D1009848
:1006F0002860002043E00098286000203FE0E4B23A
:10070000641C2000FFF7F8FC0100C9B2002902D0E8
:10071000C0B2FF2803D10020286003202FE0707BA7
:10072000012821D100980021019E00273F06320AAE
:1007300017433606059A002392197B4100F0DAF937
:1007400006000F0002980021039A002300F0D2F95E
:1007500002000B003000390000F0E5F9000E0A023B
:100760001043090E286009E0009801994843029956
:1007700000F068F9039900F065F9286000200BB0DB
:10078000F0BD00003015264010B50323421E0400C2
:10079000E4B2002C03D10800FFF7E4FE0CE01400E3
:1007A000DBB2E4B2A34204D31000C0B2FFF71EFFD5
:1007B00002E0C0B2FFF792FE10BD38B504000D0094
:1007C0002000C0B2FFF7BAFC0100C9B2FF2904D172
:1007D0002800FFF7FDFDC0B21BE06946C0B2FFF77D
:1007E000D3FF0100C9B2002903D000212960C0B2A3
:1007F0000FE02000C0B2FFF7C7FCC0B2002805D050
:1008000002280BD006D303280CD00FE000982860F4
:10081000002032BD009840082860F9E70098800861
:100820002860F5E70098C0082860F1E700202860FC
:100830000320EEE738120028683A00106309000030
:10084000D4120028001626407F0900000019264017
:100850001CB5040069460020FFF7AFFF0100C9B2D4
:10086000002903D000212160C0B208E0FFF7ACFCF2
:1008700001000098491C00F0E5F82060002016BD3A
:100880001CB504006846FFF7E3FF0100C9B2002968
:1008900001D0C0B208E0FFF7ABFC01000098491C92
:1008A00000F0D0F82060002016BD80B5FFF7E8FF0B
:1008B00002BD0268531C03601170704771B58B074D
:1008C00009D0521E28D30B780370401C1B421FD046
:1008D000491C8B07F5D1121F3ED3274CE50140C9B7
:1008E000331BB3432B4209D1830716D140C0121FDB
:1008F00032D340C9331BB3432B42F7D0121DFF2321
:100900001E4205D00670401C360A521E1E42F9D106
:100910001100002200F04CF971BDDB4216D0401EE0
:100920004670360A4680360C0671001D121F06D32B
:1009300040C9331BB3432B42F2D0401CDEE7401CBE
:100940000AE040C9331BB3432B42D7D10680360C93
:100950004680001D121FF4D2121D0BD00B780370BD
:10096000521E07D0401C491C1B42F7D10370401C8B
:10097000521EFBD171BD00000101010100B501BE95
:10098000FEE780B50C4A0D490B68934210D00A600F
:1009900002684A6042688A608268CA60C2680A6106
:1009A00002694A6142698A618269CA61C0690862F2
:1009B00000F021F901BD0000F3F2F1F0FC11002874
:1009C0007047704770B4103A03D378C9103A78C0B2
:1009D000FBD2530701D318C918C001D508C908C0F4
:1009E000D20704D30B880380891C801C002A01D500
:1009F0000B78037070BC70478B0701D18307E1D07F
:100A0000124205D00B78491C0370401C521EF9D1CC
:100A10007047F446002804D4494200F013F84042DD
:100A200060474042002905D45FD000F00BF84042F7
:100A300049426047494200F005F849426047034691
:100A40000B43E6D40022030A8B420BD203098B42EC
:100A500019D243088B422ED2411A00D2014652418C
:100A600010467047FF2209023FD012068B4205D381
:100A7000121209028B4201D31212090203098B429E
:100A800019D300E0090AC3098B4201D3CB01C01A74
:100A9000524183098B4201D38B01C01A5241430951
:100AA0008B4201D34B01C01A524103098B4201D33F
:100AB0000B01C01A5241C3088B4201D3CB00C01AAC
:100AC000524183088B4201D38B00C01A5241430824
:100AD0008B4201D34B00C01A5241884200D3401AC6
:100AE0005241CFD201461046704708B500F086F853
:100AF00008BD000030B4434351435D18010C0C00A5
:100B0000130C5C432D1980B2434392B2514300242D
:100B1000C918644124040B04090C09195043C01876
:100B2000694130BC704712422DD0994231D970B51D
:100B300000251B4209D00C00002112E01100FFF734
:100B400081FF0A000021002370BD0942F6D0002475
:100B5000012649186441944200D3A41A7641F8D37F
:100B60003100012601E0764109D2001864416D414F
:100B7000A41A9D41F7D2A4185D41B619F5D33000EF
:100B800022002B0070BD1B42CFD108B500F038F811
:100B900008BD01D19042CAD202000B000021002002
:100BA000704700001206130A1A43130C1A4300BFC1
:100BB000094205D0830707D00270401C491EF9D1B5
:100BC000704700000022FFE71300103906D330B44D
:100BD0001400150010393CC0FCD230BC490700D3CA
:100BE0000CC000D504C0890002D30280801C0029FB
:100BF00000D50270704700B5FEE7000070470000A6
:100C00007047000000B5022801D301200FE00B005F
:100C1000DBB2042B01DB012009E08F4B80001818A8
:100C2000C9B2405C824201D3012000E0002000BD37
:100C3000F8B504001F00022C01D3012036E0150096
:100C40000E002A003100C9B22000FFF7DBFF0128A7
:100C500001D101202AE006983100C9B2022928D129
:100C6000802149028F4222D2202820D27B49620370
:100C70008A18AB00D218C0235B01D2181668784BD3
:100C800033403E02774F37401F4317606203891895
:100C9000AA008918C022520189180A68F8239A43C9
:100CA000C000F823034013430B600020F2BD012075
:100CB000FCE7F6B2032E24D1802149048F421ED2D4
:100CC00020281CD2654962038A18AB00D218E023A1
:100CD0005B01D2181368DBB23E021E43166062034A
:100CE0008918AA008918E022520189180A68F82395
:100CF0009A43C000F823034013430B60D5E701205B
:100D0000D4E70120D2E700B20012C0B27047F8B5B4
:100D100005000F001600280000B2FFF7F4FF0400E2
:100D20002000C0B2022801D301202CE0320039009B
:100D3000C9B22000C0B2FFF765FF012801D1012030
:100D400021E046482100C9B2490341182A00D2B225
:100D500092008918C02212018A58AB491140FFB293
:100D60003B02C02292001A400A43FF218A43F1B29B
:100D70001143E4B262038018EDB2AA008018C022C9
:100D8000120181500020F2BD70B50400022C01D385
:100D9000012028E015000E002A003100C9B2200011
:100DA000FFF730FF012801D101201CE02B4861032F
:100DB0004158802212060A43C02189041143FF22B0
:100DC00012040A43904B1340F6B23202C02189004C
:100DD00011401943FF229143EAB20A436103425092
:100DE00061034058002070BDD021890040587047F1
:100DF000C22189004058C005C00D70479022920062
:100E000081507047822189004058C005C00D70474D
:100E100082218900415808000004C00F704738B58E
:100E200004002000FFF7EEFF05002000FFF7F0FFB1
:100E30002818002801D1012000E00020C0B232BDF6
:100E4000864A81507047854940587047844A81508E
:100E50007047834940587047543F001000000440D9
:100E6000FF0000FF00FFFF000168802212060A4316
:100E70000260704738B504001500C9B2002906D0D9
:100E800002291CD00FD3042931D024D33BE075486C
:100E9000A06001202073112060738C204000E0814D
:100EA0001220208234E07048A060012020731120BD
:100EB0006073FF201E30E0816B20208228E0B04864
:100EC000A06001202073112060738E204000E0811B
:100ED0006A2020821CE0AB48A06002202073112011
:100EE0006073FF201C30E0816920208210E0A6485A
:100EF000A06001202073132060738D204000E081EA
:100F00006820208204E07B22A049002000F01CFC25
:100F1000EDB2002D06D0022D1CD00FD3042D31D000
:100F200024D33BE04F4820600020207111206071E5
:100F30008C204000E0811220208234E04A4820606A
:100F40000020207111206071FF201E30E0816B2095
:100F5000208228E08A4820600020207111206071E2
:100F60008E204000E0816A2020821CE085482060BD
:100F70000120207111206071FF201C30E081692068
:100F8000208210E0804820600020207113206071D2
:100F90008D204000E0816820208204E0A7227B4968
:100FA000002000F0D1FB31BD10B5C0B2002806D042
:100FB000022808D005D3042809D006D309E0B14C93
:100FC0000CE0B14C0AE0B14C08E0B14C06E0B14C89
:100FD00004E0BC226D49002000F0B6FB200010BDEB
:100FE00038B50400AC4DC9B22000C0B2800028580A
:100FF000FFF704FF2000C0B280002858FFF70FFF62
:101000000028F7D031BD0000FFFCFFFF38B5040019
:101010000D0005E029782000C0B2FFF7E1FF6D1C4C
:1010200028780028F6D131BDF8B504000F0000255E
:101030002800994E2000C0B280003058FFF7D8FE3B
:10104000002807D0E4B2A0003058FFF7CDFE38707A
:10105000012000E02800C0B2F2BD0000C80F00006F
:10106000880F0000000031400002314070B50400DC
:101070000E00894D2000C0B280002858FFF7E9FE1D
:101080000121884301002000C0B280002858FFF7EA
:10109000DDFE2000C0B280002858FFF7DAFE0221F2
:1010A000884301002000C0B280002858FFF7CEFE20
:1010B0002000C0B280002858FFF7CBFE20218843D3
:1010C00001002000C0B280002858FFF7BFFE2000BA
:1010D000C0B280002858FFF7BCFE402188430100C1
:1010E0002000C0B280002858FFF7B0FE2000C0B238
:1010F00080002858FFF7ADFE102188430100200032
:10110000C0B280002858FFF7A1FE2000C0B28000C6
:101110002858FFF79EFE614901402000C0B28000C0
:101120002858FFF793FE2000C0B280002858FFF730
:1011300090FE5B4901402000C0B280002858FFF7B4
:1011400085FE002E0ED02000C0B280002858FFF788
:101150007AFE802189000143E4B2A0002858FFF7FD
:1011600075FE0CE02000C0B280002858FFF76BFE2F
:101170004C490140E4B2A0002858FFF767FE70BD5B
:101180000005314080083140000731407C3C0010B0
:1011900070B504000E00404D2000C0B280002858F9
:1011A000FFF751FE0121884301002000C0B28000FA
:1011B0002858FFF745FE2000C0B280002858FFF7EE
:1011C00042FE0821884301002000C0B28000285858
:1011D000FFF736FE2000C0B280002858FFF733FE2C
:1011E0002021884301002000C0B280002858FFF76A
:1011F00027FE2000C0B280002858FFF724FE2749B0
:1012000001402000C0B280002858FFF719FE2000DE
:10121000C0B280002858FFF716FE22490140200086
:10122000C0B280002858FFF70BFE2000C0B280003B
:101230002858FFF708FE784901402000C0B280001E
:101240002858FFF7FDFD002E0DD02000C0B2800011
:101250002858FFF7F8FD04210143E4B2A000285804
:10126000FFF7EEFD0DE02000C0B280002858FFF728
:10127000EAFD042188430100E4B2A0002858FFF7EA
:10128000DFFD70BD0000604000006540000064406C
:1012900000006340000062400C0F0028FFFEFFFFCB
:1012A000FFFBFFFFFFFDFFFFF1B5A8B00C0016002C
:1012B00028A800783100C9B2884201D1012000E09D
:1012C000002069460B70554DFF229C322900C0B2A8
:1012D00000F03AFA28A8007869460978884201D1D6
:1012E000012000E000200194CE2252002900C0B26B
:1012F00000F02AFA02A81421FFF764FC3421002729
:101300003A001AAC2000FFF74DFC4C213A0007AC24
:101310002000FFF747FC0198C2000023404800214D
:10132000FFF701FC0190684602783100C9B202A8BB
:10133000FFF7A0FD08241B941AAE02AD6879307245
:101340001AAA2979029800F008FB06201B906879F8
:1013500030721AAA297B049800F0FFFA07970894C4
:10136000099402200B900C97129714972D4C28A8E3
:1013700000788000205800F0D1FC2B4828A909787B
:1013800038225143421807A928A800788000205825
:1013900000F022FB28A8007880002058FFF764FDA9
:1013A000002203210E20285EFFF7B1FC0E20285EEC
:1013B000FFF7A9FC0199C906C90E009101994909D5
:1013C0000B021B0A00220321C0B2FFF731FC0E20E2
:1013D000285EFFF798FC00220321C0B2FFF7D4FC7F
:1013E0006846298A01800321418001210171072279
:1013F0000E4828A9097889004158684600F04AFD3E
:10140000002128A80078FFF7C3FE002128A8007853
:10141000FFF72CFE29B0F0BDFFF7FFFF7C3C00106A
:10142000008096980C0F0028240F0028F80E002842
:10143000C0B500200190009001900AE00099491C7D
:1014400000910099802292019142F7D30199491CA1
:101450000191019980225201914201D20090F0E75E
:1014600003BD80B501000020FFF7D0FD01BDF3B53D
:10147000FFB096B017001C00002630006946488077
:101480003000694608800296300069468880300046
:101490006946C880969800F019FD0290A84D2888EA
:1014A000002801D028698047A6480078002800D18C
:1014B00033E1039727002888002800D110E1019824
:1014C00000140100491C6A46D180959A010089B236
:1014D0000020EB689847969C969800F0F7FC0290E5
:1014E0006888A979FFF7ABFA694688802000441C18
:1014F00000780028FAD13000694608800EE0641EAA
:1015000020782F2802D020785C2804D168460088F3
:10151000401C694608800298401E02906846008878
:10152000022802DA02980028E9D50298002805D49A
:10153000621C9B4954A800F0D1FC0EE0684600886C
:10154000002805D12200A24954A800F0C7FC04E0FD
:101550002200934954A800F0C1FC3000694648803D
:1015600042E068460088694609886A46548854AA59
:1015700089B2A4B2019B1BB25C430919515C44AA15
:1015800080B2115468460088401C6946088068464D
:10159000008880B2019909B288420EDA54A800F09E
:1015A00095FC694609886A46528889B292B2019BC5
:1015B0001BB25A4389188842D3D2300044A96A46E4
:1015C00012888854019909140800401C6A46D0808A
:1015D00044AAE879414389B20020EB6898476846FD
:1015E0004088401C694648806846448854A800F0FA
:1015F0006DFC019909B2FFF725FA401CA4B28442A0
:1016000003D2300069460880C1E7039A824954A892
:1016100000F064FC019909140800401C6A46D0805F
:1016200054AAE879414389B20020EB689847002F1B
:1016300073D030006946488041E0684600886946BA
:1016400009886A46528889B292B2019B1BB25A43FA
:101650008918795C44AA80B2115468460088401CFD
:10166000694608806846008880B2019909B28842BC
:101670000EDA380000F02AFC694609886A4652886A
:1016800089B292B2019B1BB25A4389188842D4D2C4
:10169000300044A96A461288885401990914080048
:1016A000401C6A46D08044AAE879414389B20020B0
:1016B000EB68984768464088401C69464880684601
:1016C0004488380000F002FC019909B2FFF7BAF92A
:1016D000401CA4B2844220D2300069460880C1E791
:1016E00080214900320004AC2000FFF75BFA959896
:1016F000A9688847002F07D00097039B969A47490F
:1017000004A800F0EBFB05E0039B969A444904A86B
:1017100000F0E4FB04A8A96888477FB018B0F0BDCA
:1017200010B508480078002809D03F4C210000205F
:10173000FFF77AFC012221003A4800F052FC10BD6C
:1017400080120028F212002838B50D001400C0B233
:10175000002803D135480078002800D131BD344835
:101760000178002900D0FEE70178491C017000F0E3
:1017700085FB0023220029002E48FFF778FEFFF7A3
:1017800057FEF6E700210A0002802C4A4280828040
:10179000FF228271C2718160C160016170470000E7
:1017A000303F0010264902880A8042884A80828899
:1017B0008A8082798A71C279CA7182688A60C268B5
:1017C000CA600069086101201B4908707047000069
:1017D000103F001000B585B06846FFF7D3FF1948E9
:1017E00002906846FFF7DEFF05B000BD80B5FFF749
:1017F000F1FF00230022E12149020020FFF754FD00
:101800004023114A0021074800F094FD01210020E7
:10181000FFF7BEFC01BD00003C3F00107C3E001005
:10182000E83E001050120028F3120028200F002874
:10183000F4120028203F0010F2120028FFFF0000E1
:101840008012002863140010BC11002870B55F4B93
:10185000C018C00900015E4BC31804290CD21F2513
:101860001C68CE002800B0408443D2B21540C800A6
:10187000854025431D600CE0FC311F255C68CE00CF
:101880002800B0408443D2B21540C80085402543AB
:101890005D6070BD00B5002A03D101228A4042601C
:1018A00002E001228A40826000BD30B403008C0057
:1018B0000F25596C2800A04081431540A5400D43D9
:1018C0005D6430BC704730B4030001259C6C280077
:1018D0008840844315408D4025439D6430BC70474B
:1018E00030B403000125DC6C280088408443154097
:1018F0008D402543DD6430BC704730B403004C009C
:1019000010340325D96C2800A04081431540A54020
:101910000D43DD6430BC7047426901228A40426158
:101920004069704730B4030001259C692800884055
:10193000844315408D4025439D6130BC704730B4D1
:1019400003004C000325196C2800A040814315407A
:10195000A5400D431D6430BC7047F8B50400002558
:10196000002C30D01600002E2DD00F003268390028
:101970002000FFF78FFF327A39002000FFF766FF63
:10198000726939002000FFF79EFFB269390020001C
:10199000FFF7A6FFF26939002000FFF7AEFF72687B
:1019A00039002000FFF781FFF26839002000FFF7BF
:1019B000C6FF39002000FFF7AFFF32693900200071
:1019C000FFF7B0FF00E0034D2800F2BD0000CFBFDD
:1019D0000000304001005A00F4B588B0C14AC24B43
:1019E0001B68C24C2468C24D2D68C24E36680696EC
:1019F000C14E36680596C14E36680496C04E3668AC
:101A00000396C04E36680296BF4E36680196BF4EAA
:101A100036680096002800D161E1002900D15EE11E
:101A20000A68022A05D126228A5C002A01D10022F6
:101A300001E04A68521E24268E5D002E01D0012648
:101A400000E00026B24F1F40330480267602334068
:101A50003B43B04E1E4007960F26079B0F27BB4304
:101A600032401A43AC4B1A408027BF04174307602B
:101A70000A789207920F23401406C0229204224053
:101A80001A43026425228A5C002A01D0012200E068
:101A9000002240239D43920140231A402A43CB7EDB
:101AA000002B01D0012300E00023B04C14409A0227
:101AB0008023DB001A4022434B7E002B01D0012300
:101AC00000E00023AA4C14401D0280225200154061
:101AD00025438A7E002A01D0012400E000248022D0
:101AE0009200A44B1D40640214402C438D6B6D1E6C
:101AF0002E40A14D25403604F024240334402C43CD
:101B00000D696D1E6D076D0F0726B4432543012433
:101B10004E6926401027BD43360110273E402E4314
:101B20004D696D0825402027BE436D0120273D40AB
:101B3000354385640D7B002D01D0260000E0002692
:101B40008B4D069F2F40BC463702802676003740DB
:101B5000664637430E7E002E01D0260000E00026A8
:101B60003B40760232401A431F238E68761E1E4089
:101B70001F27BA431643C022920086500A7FD7B26D
:101B8000059AFF26B243174320228A5CD6B27B4ACD
:101B90003A403704FF2636043E401643C4229200E2
:101BA000865027228A5C002A01D0260000E0002609
:101BB000049A2A40360280277F003E4016430A6975
:101BC000521E5207520F0727BE4332434E6926402A
:101BD0001027BA43360110273E4016434A6952087F
:101BE00022402027BE43520120273A40324342641C
:101BF0000A7B002A01D0220000E00022039E35402B
:101C000016028022520016402E438D686D1E1A0067
:101C10002A401F239E4332430B68012B01D126002B
:101C200000E0002680235B02394D2A4036041E4026
:101C300016438022920086503C228A5CD2B2029ED9
:101C4000FF27BE433243C126B600825128228A5C58
:101C5000002A01D0260000E00026019F484A3A40B1
:101C600077068026B60437401743CA6A012A01D195
:101C7000260000E00026434A3A40360680277F04CB
:101C80003E4016434A6B012A00D00024089A354092
:101C9000240423402B4330240C5DE4B2FF25AB43E6
:101CA0001C4304654423CB5CDBB2009CFF25AC43A2
:101CB00023438124A40003518B6C334C0351096CE2
:101CC000324BC150002A09D0002050601060906053
:101CD000D0601062D06210632D4850630022100063
:101CE00009B0F0BD0160AA00883F00108C3F0010D1
:101CF000903F0010943F0010983F00109C3F001050
:101D0000A03F0010A43F0010A83F0010AC3F0010FF
:101D1000FFFFFEFFFF3FFFFFFFFFFFFC1D490160CC
:101D2000C0218903016400218164FF220832C0239D
:101D30009B00C250C1239B00C150C4239B00C150D3
:101D4000416480239B00C250812292008150016532
:101D5000114A8150114A81500C4A81500A4A8150DF
:101D60000F4A81500F4A815070470000FFFBFFFF70
:101D7000FFFEFFFFFFFDFFFFFFFFF0FFFFFF00FF84
:101D8000FFFFFFFDFFFFFFFE880F0000C80F0000F0
:101D9000EFCDAB000F000003C80E0000880E00005E
:101DA000080F0000480F000000B5010009B200292B
:101DB00005D40121C006C00E81402B48016000BD42
:101DC00000B5010009B2002905D40121C006C00EEA
:101DD00081402648016000BDF0B5020012B2002A21
:101DE00018D41822224B040024B2A408A4001C59C1
:101DF000FF250600F6001640B540AC438901C9B284
:101E00000500ED002A409140214300B28008800087
:101E100019501CE00F22174C182503001BB2134069
:101E2000083B9B089B00060036B23240083A9208F5
:101E30009200A258FF260700FF002F40BE40B24389
:101E40008901C9B2C0000540A9401143E150F0BD6D
:101E500000B572B608480168002902D00168491E21
:101E60000160006800BD000000E100E080E200E0E9
:101E700000E400E01CED00E0EC12002880B5FFF764
:101E8000E7FF00F075FA01BD80B5C9B200B2FFF7F7
:101E9000A3FF01BD70B504000D001600200000F086
:101EA00077FA29000020205E00F091FA3100C9B2D3
:101EB0000220205EFFF7E8FF0220205EFFF780FF90
:101EC0000220205EFFF770FF70BD0000431C017808
:101ED000401C0942FBD1C01A704700000CB418B571
:101EE00083B004000A0006A802900194002000902C
:101EF00002AB01A9084878441E3000F088FA00219E
:101F0000019A1170002801D40198001B04B00199B6
:101F100010BC03B0084700BF9BE9FFFF00B5826813
:101F20005118816003E081684269891A8160816883
:101F300042699142F7D200BD00B5C2685118C16034
:101F400003E0C1684269891AC160C168426991426F
:101F5000F7D200BDF8B50400002C01D0012000E04C
:101F6000002054228749C0B2FFF7EEFB00252E0067
:101F70002078012101432170A560E560606920613E
:101F80006078002803D0022810D007D315E06169DB
:101F90002A0067683800FEF705FE0EE06069410020
:101FA0002A0067683800FEF7FDFD06E060698100E1
:101FB0002A0067683800FEF7F5FD25703000C0B2D2
:101FC000F2BD10B50400002C01D0012000E000207B
:101FD00070226C49C0B2FFF7B7FB60692169401AF3
:101FE00010BDFEB504001700002C01D0012000E058
:101FF00000200D00AA226349C0B2FFF7A5FB002014
:102000000600002D01D10326B8E005202178014209
:1020100001D00426B2E00097217804220A432270FE
:102020002169009A914200D2A3E06069A168471A31
:102030000098874265D26078002803D002283FD0FC
:102040001DD391E03A0029006068A368C018019090
:102050000198FEF7D1FC019839002000FFF75EFFE0
:102060000098C21BE9196068A368C5182800FEF72C
:10207000C3FC0098C11B2000FFF750FF74E07A00FA
:1020800029006068A3685B00C01801900198FEF702
:10209000B3FC019839002000FFF740FF0098C01BF7
:1020A0004200780029186068A3685B00C518280002
:1020B000FEF7A2FC0098C11B2000FFF72FFF53E0A2
:1020C000BA0029006068A3689B00C01801900198BD
:1020D000FEF792FC019839002000FFF71FFF0098DF
:1020E000C01B8200B80029186068A3689B00C5184F
:1020F0002800FEF781FC0098C11B2000FFF70EFFAF
:1021000032E06078002803D002281FD00FD32BE0E4
:102110000098019029006068A2688518019A28003B
:10212000FEF76AFC00992000FFF7F8FE1CE000981B
:10213000420029006068A3685B00C5182800FEF70C
:102140005BFC00992000FFF7E9FE0DE0009882009B
:1021500029006068A3689B00C5182800FEF74CFCA6
:1021600000992000FFF7DAFE20690099401A2061EB
:1021700000E006002078FB21014021703000C0B251
:10218000FEBD0000003C0010FEB505000C00002D57
:1021900001D0012000E000200092654EFF225C3259
:1021A0003100C0B2FFF7D0FA0098002801D001201A
:1021B00000E00020AE2252003100C0B2FFF7C4FAA6
:1021C00000210E000800002C01D1032690E02878A1
:1021D0008007800F002803D0009801600626A3E046
:1021E0002800FFF7EEFE00990968884209D200999D
:1021F00008600726002804D12878F72101402970BB
:1022000092E028780821014329706869E968471A33
:1022100000980068874225D36878002803D00228F8
:1022200015D009D360E0009802686868E968411831
:102230002000FEF7E1FB57E0009800684200686864
:10224000E968490041182000FEF7D6FB4CE00098F1
:10225000006882006868E968890041182000FEF77C
:10226000CBFB41E06878002803D0022828D012D3A5
:102270003AE03A006868E968411801940198FEF76D
:10228000BBFB019800980068C21B6968E419200034
:10229000FEF7B2FB28E07A006868E9684900411857
:1022A00001940198FEF7A8FB019800980068C01BF4
:1022B00042006968780024182000FEF79DFB13E0B7
:1022C000BA006868E9688900411801940198FEF72E
:1022D00093FB019800980068C01B82006968B800F1
:1022E00024182000FEF788FB2878F7210140297088
:1022F0006846007AC0B2002816D128780B2801D190
:10230000022611E028780221014329700098016813
:102310002800FFF711FE2869009909684018286114
:102320002878FD21014029703000C0B2FEBD0000B8
:10233000003C0010F8B50400002C01D0012000E0A2
:1023400000201D0016000F00872292000749C0B22E
:10235000FFF7FAF90021080066600A002270677032
:10236000A160E16025616561C0B2F2BD003C001072
:1023700000B5002007E00549C2018A585200520802
:10238000C301CA50401C3F28F5DB00BD0000584087
:1023900030B5010000221000134B1B68002914D037
:1023A0008C786407640F0725AB431C430B79002B23
:1023B00001D00122FFE763005B08D2071A430B4BF1
:1023C0000024095F89005A5000E0064830BD00B57E
:1023D000074A1368002B03D0126800B28000115026
:1023E00000BD000001005600B03F001000802040FA
:1023F000EC0E002870B506000800002B06D0140073
:102400001D002178B047641C6D1EFAD170BDF8B56F
:1024100088B0029000910392019309E00123039A8E
:1024200000990298FFF7E6FF00900398401C039084
:1024300003980078002821D02528EFD10398407810
:102440000399891C03910100252812D058286CD0CB
:10245000632815D064281BD0692819D06F2864D050
:10246000702869D073286FD075285ED078285CD02A
:10247000DEE70098029A90470090D9E709B0F0BDD6
:10248000019800680168001D019A1060C9B2F0E768
:10249000019800680468001D01990860002C04D5AB
:1024A0002D210098029A9047009064206F2801D156
:1024B000082506E020210143782901D00A2500E003
:1024C00010250B272600642803D1002C01D571426A
:1024D0000E0004007F1E049730002900FEF7B2FAB8
:1024E0003031C8B23A280ADA05A8C0190490017040
:1024F00030002900FEF7A6FA060005D002E06118B8
:10250000AF31F1E7002FE5DC049C009879420A2204
:10251000D2439142B0D00B21CD1B029E2178B0470F
:10252000641C6D1EFAD10296A6E7019909680C6831
:10253000091D019A1160B9E7019800680468001D3F
:10254000019908607820B1E7019800680468001DCF
:10255000019908602000FFF7B9FC050000988BD0B6
:10256000029E2178B047641C6D1EFAD1029683E763
:10257000F8B584B000F094FBB54901270868032240
:10258000904338430860B3480A6802400A60B24981
:102590000A6803239A433A430A600A6802400A60C1
:1025A000E1490A6803239A433A430A600A681040E3
:1025B0000860DE4801680F22914339430160DC481E
:1025C0000168072291430160DA48016807229143BC
:1025D00004220A4302600168F0229143C0220A43A8
:1025E00002600168C02292000A4302600168C022B2
:1025F00012010A4302600168CF4A0A408021490162
:1026000011430160DE480168802212060A4302601D
:10261000DC48016839400029FAD00168490839408E
:102620000029FAD0D8480168D84A0A400260D84840
:102630000168D64A0A408021490011430160D5480B
:102640000168D24A0A408021490011430160D24802
:102650000168CE4A0A400260D048016807229143CF
:1026600002220A430260CE4801684900490801601D
:10267000CC480168890A890229220A43026001685C
:10268000C94A0A4002600168802252040A4302607B
:102690000168C64A0A4002600168802212060A43A5
:1026A0000260C3480168C34A0A408021C90011433F
:1026B00001600168FF2291437D220A43026080216C
:1026C00089020268BC4B13400B43036080229204D2
:1026D0000368BA4C1C4014430460B94B04681C40A6
:1026E0000460046880252D0625430560B54804680C
:1026F0000725AC43022525430560B3480468240E32
:102700002406B24D254305600468B14D2540802460
:1027100064052C430460046880252D06254305606C
:10272000AC480468640064080460AB4C8025AD00CC
:102730002668A0483040284320602068FF26B04328
:1027400062260643266026689B4830408026F602B3
:10275000064326602668994830400243226020687C
:1027600018402060206880221206024322609B48A5
:1027700002680724A24302241443046098480268B4
:102780007F24A2432824144304600268894C144027
:102790002C4304600268884C1440214301600168A6
:1027A000864A0A4002608F4902680A400260026855
:1027B0001A400260026880242406144304608A4898
:1027C00002680724A243022414430460AD4802684F
:1027D0007F24A2431E24144304600268754C1440F5
:1027E000254305600268744C1440C02292022243C3
:1027F00002600268714C144004600268114001607C
:1028000001680B4003600168802212060A430260DF
:102810009D48006838400028FAD09C48006838403D
:102820000028FAD0AE48006838400028FAD0AD48F9
:10283000006838400028FAD0AB480168072291436D
:1028400001606846A9491022FEF7BCF8002628E07E
:10285000C4132040FFFCFFFF001320403220002162
:1028600000F02EFA300040B28000281801683022B3
:102870009143220052B21201302313400B430360F4
:10288000641E200040B26946320052B25200895C98
:1028900000B209B28842E1DA3220002100F010FAD9
:1028A000761C300040B2082848D2300040B20428DC
:1028B0000CD1EFF31084002080F310888C4B0022A1
:1028C0000121102000F058FB84F31088B24D300035
:1028D00040B28000281801680F2291436A463300F5
:1028E0005BB25B00D21852781207120F0A430260E3
:1028F000300040B280002818016830220A4302608C
:10290000300040B2800028180168802252000A433B
:102910000260300040B28000281801688022120650
:102920000A4302600224ACE78013204000002440E8
:102930000015264044152640FF8FFFFF9748134A95
:10294000016811400160F821C94303680B4003602E
:10295000934803681A40026002681140016000F069
:102960008CF990480168802212060A4302600168CF
:102970000F43076000F076F900F038F805B0F0BDBD
:102980001C1526402415264010102040FF00FFFF94
:10299000081020400C102040200320400412264044
:1029A0000419264008192640FFFFF8FFFFFFFFEF3C
:1029B00000192640FFE0FFFFFFFFE0FFFFFFFFF9E8
:1029C000FFFFFFCF0812264014192640F1D24D0018
:1029D000FFFFFF8F18192640101926400C122640C1
:1029E00000162640FFFFFFF71012264038B586B0CC
:1029F00068466D491822FDF7E5FF6846FDF7DCFCE7
:102A0000C0B200280ED0694C182269492000FDF799
:102A100055FF0020E075FF208C30664908600020DB
:102A2000FDF7ACFF644D2800FDF73FFFC0B2002862
:102A30000ED05E4C18225E492000FDF73FFF0020BB
:102A4000E075FF208E305B4908600020FDF796FF9F
:102A5000724C286820602068714940187149FDF760
:102A6000F1FF71490860714D206871494018FA21E1
:102A70008900FDF7E7FF28602868C0036D490860FA
:102A800007B030BD041626400C1926401C192640FC
:102A9000F8B50400002637002000C0B202280DDB84
:102AA000424D182242492800FDF708FFEE75FF202D
:102AB000A430404908600020FDF760FF2000C0B24C
:102AC000002804D15C4800688707BF0F06E0E4B225
:102AD000012C03D1594800688707BF0F3800F2BDA9
:102AE000401626404416264014122640003F00108F
:102AF00050C30000F8B504000E002000C0B2022848
:102B00000EDB2A4D18222A492800FDF7D7FE0020A7
:102B1000E875FF20C830274908600020FDF72EFF28
:102B200000F040FA05002000C0B2FFF7B1FF032813
:102B300003D12000C0B200F041F841480168802272
:102B400012060A4302602000C0B200280FD13D489F
:102B50000660009881B23C4808430321014336488F
:102B600001603A48016810229143016010E0E4B22C
:102B7000012C0DD136480660B9B233480843032111
:102B800001432E48016033480168102291430160DF
:102B9000280000F00BFAF1BD40122640080020404A
:102BA0000804204008152640D03E001038120028A6
:102BB0004C390010D4120028D8120028F8B50400AF
:102BC0002000C0B202280EDB234D18222349280022
:102BD000FDF774FE0020E87596208000204908600B
:102BE0000020FDF7CBFE2000C0B2002809D1B9B209
:102BF0001548084303218843012101430E48016021
:102C00000BE0E4B2012C08D1B1B20F480843032114
:102C100088430121014309480160F1BDDC1200280D
:102C20003F420F0040420F00E4120028E01200284B
:102C3000E7030000E8120028001220401012204094
:102C400044122640000220400000FA050C002040FB
:102C5000000620400C042040381200284C39001097
:102C6000D412002880B500F0B3F913490A68032391
:102C700013430B6000F0B0F901BD80B500F0A8F976
:102C80000D490A6803239A43012313430B600A6822
:102C900003239A43022313430B6000F09DF901BD07
:102CA00080B5FFF7EAFF054801684900490801605F
:102CB000FFF7D8FF01BD000040C0264000C02640FD
:102CC000F8B504000D00224F387800280ED01C4EB5
:102CD00018221C493000FDF7F1FD0020F075CF20CF
:102CE0004000194908600020FDF748FE2000290037
:102CF00001223A7080225204002399420AD301D85B
:102D0000904207D3134A04000D0013A003C8001912
:102D1000694102E00200002000210C4B00241C60ED
:102D20000F4D2A600F4A146005221A601A68D203F8
:102D3000FCD51C600029DDD10028DBD13C70F1BD41
:102D400038120028F43A0010D412002810E000E0F5
:102D5000F1120028FFFFFF00010000FFFFFFFFFF4F
:102D600014E000E018E000E0F3B595B01700002192
:102D70000D000800684601801C00A4B2A4082000D1
:102D800080B280218900884203D3012568460480EF
:102D90007E4C1C9E00F02FF9002800D099E0684678
:102DA000877016A8077801A81021FDF70BFF01987E
:102DB000022188433100C9B2490002221140014377
:102DC0000191019804218843FFB2B9000422114007
:102DD0000143019101980821884369468978C90017
:102DE000082211400143019101981021884301906C
:102DF0000198202188430190019840218843019047
:102E00000198802101430191614F0198384015A933
:102E100009780902F82252010A40024301920198FE
:102E20005C490140019101980002000AA82149056E
:102E30000143019111A81021FDF7C4FE1198800AE9
:102E40008002A4B2A105890D014311915248006886
:102E5000002806D101980740D02040013843019056
:102E600007E0002805D00198074080204001384342
:102E70000190002211A901A800F031F9EDB2002D56
:102E800003D06846008800F0ABF809A81021FDF7D0
:102E900099FE099802218843F6B27100022211407E
:102EA0000143099109983D490140099109983C491C
:102EB0000140802040020843099009980002000A5E
:102EC0008821490501430991002109A800F0B0F8C3
:102ED00050E000F09BF80128FBD000F091F80128A9
:102EE000F7D10DA81021FDF76DFE0DA80078FD218A
:102EF00001400DA801700DA800780C2101430DA818
:102F000001700D980002000AB021490501430D919E
:102F100000210DA800F08CF800F072F8002829D1EB
:102F2000EDB2002D03D06846008800F059F805A8DE
:102F30001021FDF747FE059802218843F6B2710083
:102F40000222114001430591059814490140059161
:102F500005981349014080204002084305900598D8
:102F60000002000A8821490501430591002105A8B6
:102F700000F05EF817B0F0BD1CB5012400949BB2C0
:102F8000D2B2C9B2C0B2FFF7EFFE13BDFF0100001D
:102F9000FFE0FFFFFF1FFFFF30070017FF00FFFFED
:102FA000FFFF00FFEFF3108072B6704780F31088C8
:102FB000704700000000000000000000000000005A
:102FC000801C800803D0401C801EFCD100BF7047CD
:102FD000EFF3108072B6704780F3108870470000DE
:102FE0000D490A680D4B134080B200050C4A02409F
:102FF0001A430A60704708480068C00FC0B27047A3
:10300000084801680800C007C00F704705480068FD
:10301000C00FC0B27047000028102640FFFF0FC04D
:103020000000F03F2C102640C069C00FC0B27047AE
:10303000F8B502000E00002A01D105204EE00F2055
:1030400069490B681B0A0340002B01D1002007E0EF
:103050000968090A08400E2801D1012000E0022079
:10306000624940010F18624C624D28001100102285
:10307000FDF7C2FC28680121884328601021280040
:10308000FDF79FFC5C4B2A000121380000F0CFF8CF
:10309000002804D0012021E0641E002C15D0380047
:1030A000FFF7C2FF0028F7D1002E08D0102128001A
:1030B000FDF786FC300029001022FDF79DFC00F092
:1030C00079F8012803D1032008E0022006E000F08F
:1030D00071F8002801D1002000E00420F2BDFEB507
:1030E00003001600002B03D001910198002801D1A4
:1030F00005205DE00F203C490A68120A0240002AC0
:1031000001D1002007E00968090A08400E2801D112
:10311000012000E002203549400108180090374C9A
:10312000344D280019001022FDF766FC344F38009A
:1031300001991022FDF760FC28680121884328606E
:10314000386801218843386010212800FDF739FCD8
:1031500010213800FDF735FC3B002A0001210098C2
:1031600000F065F8002804D0012021E0641E002C46
:1031700015D00098FFF758FF0028F7D1002E08D08F
:1031800010212800FDF71CFC300029001022FDF75B
:1031900033FC00F00FF8012803D1032008E00220DF
:1031A00006E000F007F8002801D1002000E004202C
:1031B000FEBD000010B50F4C10212000FDF700FCF3
:1031C0002068000F0007A0210906884201D10020D5
:1031D00009E02068000F0007F0210906884201D1AC
:1031E000012000E0022010BD00002040000022402D
:1031F000FFFFFF0FA0120028D0120028FFFFFF00E2
:10320000C0120028174A1268120C120489B2114326
:1032100081607047C16070470161704700B5006808
:10322000C00F002801D1104800E0002000BDF8B513
:1032300007000C0015001E003800FFF7EFFF002804
:103240000DD129003800FFF7E5FF31003800FFF706
:10325000E3FF21003800FFF7D5FF002000E002481F
:10326000F2BD0000843F001001008A0000B501009B
:1032700009B2002905D40121C006C00E81408F4843
:10328000016000BDF0B5020012B2002A18D4182265
:103290008B4B040024B2A408A4001C59FF2506008F
:1032A000F6001640B540AC438901C9B20500ED00F7
:1032B0002A409140214300B28008800019501CE050
:1032C0000F22804C182503001BB21340083B9B08BB
:1032D0009B00060036B23240083A92089200A2588B
:1032E000FF260700FF002F40BE40B2438901C9B24C
:1032F000C0000540A9401143E150F0BD80B500F089
:1033000012F87148714902680A4002607048026808
:103310000A4002606F4802681140016000F092F8B4
:1033200000F0A9F801BDFEB568466B490CC90CC098
:1033300008390838002630000AE06A460300DBB28C
:10334000DB00D2185268521C114000290ED1401CDB
:103350000100C9B200290AD107216A460300DBB285
:10336000DB00D2580A40002AE7D0FEE7FEE75B4CBC
:10337000072021680140002900D0FEE7584F396836
:10338000491C0840002800D0FEE7350024E06846CC
:103390002900C9B2C9004018416868462A00D2B263
:1033A000D200805800F044F815E030000028EED03C
:1033B0002168491E68462A00D2B2D200805800F027
:1033C00037F868462900C9B2C90040184168386812
:1033D000401C00F02DF86D1C2800C0B2002826D13A
:1033E00068462900C9B2C9004058002814D0206896
:1033F00069462A00D2B2D200895888420AD3684668
:103400002900C9B2C900401840682168884201D328
:103410000120CBE73000C9E768462900C9B2C900DE
:103420004018406821688842BFD30120BEE7F7BD3D
:1034300080B50022002302E00CC008380830884222
:10344000FAD301BD30B5274880082749274A002311
:1034500008E01C00E4B2A40014591D00EDB2AD0058
:103460004C515B1C1C000500E4B2EDB2AC42F0D341
:103470001F48016030BD10B5102311211A480022E9
:103480001C00E4B2A4001459DBB29B00C4500B0032
:10349000DBB29B00D258C9B2890042500121002002
:1034A000FFF7F0FE00210120FFF7ECFE0020FFF700
:1034B000DDFE0120FFF7DAFE10BD000000E100E0B4
:1034C00000E400E01CED00E000132040FFFFF7FFE8
:1034D00080132040A01320405C3F00105C3D001092
:1034E000603D001080000000001300280000001064
:1034F00008ED00E05F4940587047FC2212018150FE
:10350000FC210901405870475B4940587047F82238
:1035100012018150F82109014058704710B5002070
:10352000FDF742FDFFF7E6FF400708D50020FDF755
:103530003BFD0421FFF7E1FFFEF7F2F80FE000206A
:10354000FDF732FD8024A400FFF7DEFF20400028B5
:1035500005D00020FDF728FD2100FFF7D8FF10BDA2
:1035600010B50120FDF720FDFFF7C4FF400709D586
:103570000120FDF719FD0421FFF7BFFF3F48006858
:1035800080470FE00120FDF70FFD8024A400FFF726
:10359000BBFF2040002805D00120FDF705FD2100DC
:1035A000FFF7B5FF10BD10B50220FDF7FDFCFFF7DA
:1035B000A1FF400708D50220FDF7F6FC0421FFF724
:1035C0009CFF00F05FF80FE00220FDF7EDFC802487
:1035D000A400FFF799FF2040002805D00220FDF746
:1035E000E3FC2100FFF793FF10BD10B50320FDF7AA
:1035F000DBFCFFF77FFF400706D50320FDF7D4FC77
:103600000421FFF77AFF0FE00320FDF7CDFC8024B3
:10361000A400FFF779FF2040002805D00320FDF724
:10362000C3FC2100FFF773FF10BD10B50420FDF7A8
:10363000BBFCFFF75FFF400709D50420FDF7B4FC92
:103640000421FFF75AFF0E48006880470FE004206E
:10365000FDF7AAFC8024A400FFF756FF20400028B5
:1036600005D00420FDF7A0FC2100FFF750FF10BD9E
:1036700000000000C80F0000880F0000F00E0028B6
:10368000F40E002838B584B0002001903C48007842
:10369000002866D004E0012269463A48FEF7A1FC02
:1036A00069460220FDF7C0FC0028F4D16846007886
:1036B0000A2856D106200190324D012301AA02A901
:1036C0002800FEF761FD02AC03222FA1E01C00F0F0
:1036D00063F8002810D12448017802293BD0012149
:1036E00001702800FEF76DFC0190002301AA1F491C
:1036F0002800FEF749FD2EE0032224A1E01C00F083
:103700004BF8002810D11A480178022923D0012152
:1037100001702800FEF755FC0190002301AA15490D
:103720002800FEF731FD16E0032219A1E01C00F08D
:1037300033F800280FD11048017802290BD001215D
:1037400001702800FEF73DFC0190002301AA0B49FF
:103750002800FEF719FD2800FEF7FCFB01200D49AB
:10376000087005B030BD0000F8120028BC10002819
:10377000F71200283C100028F91200283C110028FC
:10378000F612002868120028524D430047474100B6
:1037900054485300F512002810B4002A10D00B78BA
:1037A00004789C4206D1002C0AD0401C491C521EB1
:1037B000F5D105E002D20020C04302E0012000E084
:1037C000002010BC7047000000B5010009B20029BC
:1037D00005D40121C006C00E81404A48016000BDE9
:1037E00000B5FEE780B54848006848480068C10F4A
:1037F000002905D046498005800D80000858804783
:103800000020FFF7E1FF01BD80B542480068424853
:103810000068C10F002905D03D498005800D80005A
:10382000085880470120FFF7CFFF01BD80B53B4816
:1038300000683B480068C10F002905D03449800565
:10384000800D8000085880470220FFF7BDFF01BDB2
:1038500080B53448006834480068C10F002905D09D
:103860002B498005800D8000085880470320FFF712
:10387000ABFF01BD80B52D4800682D480068C10F21
:10388000002905D022498005800D80000858804716
:103890000420FFF799FF01BD80B52648006826483F
:1038A0000068C10F002905D019498005800D8000EE
:1038B000085880470520FFF787FF01BD80B51F48E6
:1038C00000681F480068C10F002905D01049800515
:1038D000800D8000085880470620FFF775FF01BD66
:1038E00080B51848006818480068C10F002905D045
:1038F00007498005800D8000085880470720FFF7A2
:1039000063FF01BD80E200E0643F00100011204031
:1039100000080028683F0010041120406C3F001090
:1039200008112040703F00100C112040743F00101F
:1039300010112040783F0010141120407C3F0010EF
:1039400018112040803F00101C112040443A5C4474
:10395000E79B98E6A18CE99DA25CE58D95E78987B8
:10396000E69CBAE79BB8E585B35C30E8B68AE987A0
:103970008EE79BB8E585B35CE38090E4BE8BE7A857
:103980008BE38091E59084E4B8AAE6A8A1E59D9731
:10399000E79A84E4BDBFE794A8E4BE8BE7A88B5CFC
:1039A0006C69627261726965735C73646B5C747676
:1039B00069696268346D5C7372635C737973746592
:1039C0006D5C73797374656D5F7476696962683470
:1039D0006D5F636D30706C75732E6300443A5C44A8
:1039E000E79B98E6A18CE99DA25CE58D95E7898728
:1039F000E69CBAE79BB8E585B35C30E8B68AE98710
:103A00008EE79BB8E585B35CE38090E4BE8BE7A8C6
:103A10008BE38091E59084E4B8AAE6A8A1E59D97A0
:103A2000E79A84E4BDBFE794A8E4BE8BE7A88B5C6B
:103A30006C69627261726965735C73646B5C7476E5
:103A400069696268346D5C7372635C64726976651F
:103A500072735C737973636C6B5C63795F73797396
:103A6000636C6B2E68000000443A5C44E79B98E668
:103A7000A18CE99DA25CE58D95E78987E69CBAE774
:103A80009BB8E585B35C30E8B68AE9878EE79BB8DA
:103A9000E585B35CE38090E4BE8BE7A88BE380917F
:103AA000E59084E4B8AAE6A8A1E59D97E79A84E4A6
:103AB000BDBFE794A8E4BE8BE7A88B5C6C6962721B
:103AC00061726965735C73646B5C74766969626862
:103AD000346D5C7372635C647269766572735C7377
:103AE0007973636C6B5C63795F737973636C6B2E52
:103AF00063000000443A5C44E79B98E6A18CE99D92
:103B0000A25CE58D95E78987E69CBAE79BB8E585D9
:103B1000B35C30E8B68AE9878EE79BB8E585B35C8D
:103B2000E38090E4BE8BE7A88BE38091E59084E48A
:103B3000B8AAE6A8A1E59D97E79A84E4BDBFE794FB
:103B4000A8E4BE8BE7A88B5C6C69627261726965E0
:103B5000735C73646B5C636F6D6D6F6E5C737263CB
:103B60005C647269766572735C7379737469636B94
:103B70005C63795F7379737469636B2E6300000013
:103B8000F1B401684118436858080A180098806821
:103B9000DB0701D54B46C01891422DD00D78491C4A
:103BA000032403262E4002D10E78F61C491C2B0953
:103BB0000F2B07D10B780F33491C03E00F78491CFA
:103BC0000770401C761EF9D1002BE5D00E78491CF9
:103BD000AD082C40032C01D10C78491C2402341967
:103BE000654244190025AE1E9E42D5D02678641C3D
:103BF0000670401C6D1CF6E700980C30F2BC704754
:103C0000443A5C44E79B98E6A18CE99DA25CE58D73
:103C100095E78987E69CBAE79BB8E585B35C30E811
:103C2000B68AE9878EE79BB8E585B35CE38090E4CC
:103C3000BE8BE7A88BE38091E59084E4B8AAE6A860
:103C4000A1E59D97E79A84E4BDBFE794A8E4BE8B05
:103C5000E7A88B5C6C69627261726965735C7A66F5
:103C60005F636F6D6D6F6E5C7A665F636F6D6D6FB6
:103C70006E5F6669666F2E6300000000443A5C4424
:103C8000E79B98E6A18CE99DA25CE58D95E7898785
:103C9000E69CBAE79BB8E585B35C30E8B68AE9876D
:103CA0008EE79BB8E585B35CE38090E4BE8BE7A824
:103CB0008BE38091E59084E4B8AAE6A8A1E59D97FE
:103CC000E79A84E4BDBFE794A8E4BE8BE7A88B5CC9
:103CD0006C69627261726965735C7A665F6472694D
:103CE0007665725C7A665F6472697665725F75612B
:103CF00072742E630000000072B61048104908600C
:103D0000BFF34F8F0120C0040E490A6802430A60C6
:103D10000D490A6802430A600C490A6802430A60B6
:103D2000002000210D4A03C26A45FCD1084FB84764
:103D3000084FB847084FB847FEE7000000000010E2
:103D400008ED00E00013204080132040A013204025
:103D5000FD320010C93D0010B53E001000FF0128E3
:103D6000FFFF012870B40123002413E00168001D47
:103D7000194202D04D466918491E0C60091D121FD8
:103D8000042AFAD20D00960701D50C80AD1C1A400A
:103D900000D02C700268001D002AE7D170BC70476B
:103DA00080B562B6FEF7E4FBFDF720FD0449002074
:103DB000FEF7A0FE03490120FEF79CFEFEE700BFD0
:103DC000000008100000281010B507497944183188
:103DD000064C7C44163404E0081D0A68891888479C
:103DE0000100A142F8D110BD08000000240000002D
:103DF00075FFFFFFD8030000240F0028000000001B
:103E000081FDFFFFDE010000960000000008002891
:103E100004207146084202D0EFF3098001E0EFF37D
:103E2000088000B50149884700BD000083090010E3
:103E300000F00EF8002801D0FFF7C6FF00BF00BF5A
:103E4000002000BF00BFFFF7ABFF00F003F8000049
:103E50000020704780B500F001F801BD07463846E4
:103E600000F002F8FBE7000080B500BF00BF024A87
:103E700011001820ABBEFBE7260002000D0A6669A0
:103E80006C65202573206C696E652025643A2025B9
:103E9000732E0D0A0000000004207146084201D074
:103EA000EFF30980EFF3088000B50149884700BDB2
:103EB000493F00100548014603B4684680F309886D
:103EC00000BF00BF00BF00BFFFF7B2FFA5EDF5FECA
:103ED00000127A00000000000024F40000800000BE
:103EE00000800000008000000D0A66696C652025D6
:103EF00073206C696E652025642E0D0A0000000099
:103F00000003000100040104020400020004000593
:103F100066696C653A206D646B2F257300000000A4
:103F2000417373657274206572726F7200000000D5
:103F300066696C653A202573000000006C696E6547
:103F40003A202564000000008169891E0978C9B201
:103F500001607047030100001011001000080028E4
:103F6000FFFF01280000000000000000000000002A
:103F70000000000000000000000000000000000041
:103F80000000000000000000000000000000000031
:103F90000000000000000000000000000000000021
:103FA0000000000000000000000000000000000011
:103FB00000000000FEE70000FEE70000FEE7000052
:103FC000FEE70000FEE70000FEE70000FEE700005D
:103FD000FEE70000FEE70000FEE70000FEE700004D
:103FE0007047F002FFE137001004F1FF04F1FF0415
:103FF000F1FF04F1FF04F1FF04F17704100400085D
:104000000028E13F0C110410031D3500106104125B
:10401000A70412EB04132B362010040060400000AC
:104020006504126404126304000162400100000090
:104030000000000000000000000000000000000080
:104040000000000000000000000000000000000070
:104050000000000000000000000000000000000060
:104060000000000000000000000000000000000050
:104070000000000000000000000000000000000040
:104080000000000000000000000000000000000030
:104090000000000000000000000000000000000020
:1040A0000000000000000000000000000000000010
:1040B0000000000000000000000000000000000000
:1040C00000000000000000000000000000000000F0
:1040D00000000000000000000000000000000000E0
:1040E00000000000000000000000000000000000D0
:1040F00000000000000000000000000000000000C0
:1041000000000000000000000000000000000000AF
:10411000000000000000000000000000000000009F
:04412000000000009B
:0400000510003EB5F4
:00000001FF
